:020000040800F2
:10000000E8080020890100082F170008891500085A
:100010002D170008D5020008651B0008000000002D
:100020000000000000000000000000006918000847
:10003000D702000800000000311700086B18000804
:10004000A3010008A3010008A3010008A301000800
:10005000A3010008A3010008A3010008A3010008F0
:10006000A3010008A3010008A3010008A3010008E0
:10007000A3010008A3010008A3010008A3010008D0
:10008000A3010008A3010008A3010008A3010008C0
:10009000A3010008A3010008A3010008A3010008B0
:1000A000A3010008A3010008A3010008A3010008A0
:1000B000D1180008A3010008A3010008A30100084B
:1000C000A3010008A3010008A3010008A301000880
:1000D000A3010008A3010008A3010008A301000870
:1000E000A3010008A3010008A301000800F002F822
:1000F00000F03AF80AA090E8000C82448344AAF188
:100100000107DA4501D100F02FF8AFF2090EBAE885
:100110000F0013F0010F18BFFB1A43F0010318473B
:10012000C0290000E0290000103A24BF78C878C137
:10013000FAD8520724BF30C830C144BF04680C60ED
:10014000704700000023002400250026103A28BF35
:1001500078C1FBD8520728BF30C148BF0B60704739
:100160001FB51FBD10B510BD00F07AF81146FFF79E
:10017000F7FF01F085FF00F098F803B4FFF7F2FFF6
:1001800003BC00F0A1F80000094880470948004777
:10019000FEE7FEE7FEE7FEE7FEE7FEE7FEE7FEE737
:1001A000FEE7FEE704480549054A064B7047000094
:1001B000CD180008ED000008E8020020E808002043
:1001C000E8040020E80400204FF000020429C0F0F9
:1001D000128010F0030C00F01B80CCF1040CBCF179
:1001E000020F18BF00F8012BA8BF20F8022BA1EBCB
:1001F0000C0100F00DB85FEAC17C24BF00F8012BB0
:1002000000F8012B48BF00F8012B70474FF00002A7
:1002100000B5134694469646203922BFA0E80C50FC
:10022000A0E80C50B1F12001BFF4F7AF090728BFD7
:10023000A0E80C5048BF0CC05DF804EB890028BF53
:1002400040F8042B08BF704748BF20F8022B11F07C
:10025000804F18BF00F8012B7047704770477047F8
:10026000754600F02BF8AE4605006946534620F06F
:100270000700854618B020B5FFF794FFBDE8204081
:100280004FF000064FF000074FF000084FF0000B52
:1002900021F00701AC46ACE8C009ACE8C009ACE805
:1002A000C009ACE8C0098D46704710B50446AFF3ED
:1002B00000802046BDE81040FFF75FBF0048704750
:1002C000880200207047000001491820ABBEFEE7FD
:1002D00026000200FEE7704772B6FEE770B50446DE
:1002E00000F00CF90546601C02D004480078044474
:1002F00000F004F9401BA042FAD370BD04000020B6
:100300002DE9F84FDFF8B8910024A9F1040B23463A
:100310000F2709F1040AABF1040EC9E00125A5403D
:100320002A40AA427DD1674ED1F804C0ACEB060842
:10033000B44532D014DCBCF1030F3AD009DCBCF177
:10034000000F2AD0BCF1010F1CD0BCF1020F31D13B
:100350001DE0BCF1110F17D0BCF1120F2AD119E02A
:10036000B8F5881F19D006DCB8F5803F15D0B8F570
:10037000801F1FD111E0B8F5001F0ED0B8F5041F83
:1003800018D10AE0CB6815E0CB681B1D12E0CB68E2
:1003900008330FE0CB680C330CE08B682BB1012BDA
:1003A0004FF0080303D0456104E0042302E0056137
:1003B00000E00023FF2A01D8064601E000F1040610
:1003C0004FEA840501D9A5F12005D6F8008007FA87
:1003D00005FC28EA0C0803FA05F548EA0508C6F802
:1003E00000804D68ED0062D5374DAE6946F00106DC
:1003F000AE61AD6924F0030605F001050095334DAB
:1004000006EB050CDCF80850A607360F07FA06F8CD
:1004100025EA0805DFF8B880404503D14FF0000811
:1004200017E044E0DFF8AC80404502D14FF001080E
:100430000FE0DFF8A480404502D14FF0020808E049
:10044000DFF89880404502D14FF0030801E04FF0FB
:10045000040808FA06F848EA0508CCF808804D6850
:10046000D9F80060ED024D4601D5164300E09643F1
:100470002E604D68DAF80060AD02554601D516438E
:1004800000E096432E604D68DBF80060AD035D46EA
:1004900001D5164300E096432E604D68DEF80060FB
:1004A000ED03754601D5164300E096432E60641CAB
:1004B0000D682A46E5407FF431AFBDE8F88F0000B3
:1004C000080401400000111000100240000001402B
:1004D00000080140000C01400010014000140140E0
:1004E000C26821EA02030A4043EA024101617047FF
:1004F0000AB1016170470904FBE700000148806808
:10050000704700000400002002488168027811440E
:100510008160704704000020074810B5016841F071
:1005200010010160032000F075F80F2000F006F8BC
:1005300000F024F8002010BD0020024070B50D4DE1
:1005400004464FF47A712878B1FBF0F00A49096843
:10055000B1FBF0F000F0C7FD48B9102C07D2002223
:100560002146501E00F036F800206C6070BD01205E
:1005700070BD000004000020100000200C4808B5E9
:10058000816941F001018161816901F001010091FE
:10059000C16941F08051C161C06900F08050009094
:1005A0000448416821F0E06141F00071416008BDFC
:1005B0000010024000000140002809DB00F01F028B
:1005C000012191404009800000F1E020C0F80011B5
:1005D00070470000F0B40E4B1B680C46C3F30223B7
:1005E000C3F10705042D00D90425191D072901D2DF
:1005F000002300E0DB1E012606FA05F1491E21401A
:1006000099409E40761E16403143F0BC01F0C4BBB9
:100610000CED00E0064900F0070208684FF6FF0302
:10062000184040EA0220034A104308607047000067
:100630000CED00E00000FA052DE9F0470F4605003B
:1006400061D0434E306800F00700B84209D23068EC
:1006500020F0070038433060306800F00700B842EF
:1006600051D128683B4C810712D5400703D56068FB
:1006700040F4E06060602878000703D5606840F4CB
:10068000605060606068A96820F0F0000843606016
:100690002878C00728D06868012810D0216802286F
:1006A00010D0890700292EDA616821F00301014387
:1006B0006160FFF723FF804641F288390DE0216831
:1006C0008903EFE78901EDE7FFF718FFA0EB0801C9
:1006D000494502D90320BDE8F0876068696800F0E9
:1006E0000C00B0EB810FEFD1306800F00700B8428A
:1006F0000BD9306820F0070038433060306800F0D4
:100700000700B84201D00120E5E72878400705D569
:100710006068E96820F4E0600843606028780007BA
:1007200006D56068296920F4605040EAC100606025
:1007300000F038F86168084AC1F30311515CC84001
:100740000649086006480068FFF7F8FE0020C2E787
:100750000020024000100240C62A000810000020BD
:10076000080000200448054900684968044AC1F3AC
:100770000221515CC8407047100000200010024068
:10078000D62A00080448054900684968044AC1F3AC
:10079000C221515CC8407047100000200010024088
:1007A000D62A00080E4A51680E4801F00C03042BAB
:1007B00011D0082B0FD10C48C1F38343C903C05C8F
:1007C0000AD55168084AC1F34041921E515C054A5E
:1007D0005043B0FBF1F070470449484370470000B4
:1007E0000010024000127A00B62A000800093D00FD
:1007F0002DE9F84F040070D02078C04DC00749D0D3
:100800006868C0F38100012807D06868C0F38100E0
:10081000022809D16868C00306D52868800339D545
:1008200060680028E7D035E06068B0F5803F0BD005
:1008300010B1B0F5A02F11D0286820F480302860C6
:10084000286820F4802002E0286840F48030286086
:10085000606890B1FFF752FE06460AE0286840F44F
:1008600080202860F0E700BFFFF748FE801B642867
:1008700073D828688003F7D50CE0FFF73FFE0646E3
:1008800005E000BFFFF73AFE801B6428F0D8286817
:100890008003F7D420789A4E80074FF001094FF07B
:1008A000000839D5686810F00C0F07D06868C0F3ED
:1008B0008100022809D16868C00306D4286880072F
:1008C00014D52069012808D110E02069B0B1C6F81C
:1008D0000090FFF713FE074605E00AE1FFF70EFE62
:1008E000C01B0228C4D828688007F7D5286861692A
:1008F00020F0F80040EAC10028600DE0C6F8008052
:10090000FFF7FCFD074604E0FFF7F8FDC01B0228D7
:1009100023D828688007F7D4207800072CD5794899
:10092000A169D9B1C0F80090FFF7E8FD074604E0DF
:10093000FFF7E4FDC01B02280FD8686A8007F7D5CF
:1009400071484FF4FA510068B0FBF1F0009000BF1D
:100950000098411E0091FAD20EE080E0C0F80080BD
:10096000FFF7CCFD074604E0FFF7C8FDC01B0228D7
:1009700075D8686A8007F7D42078400760D5E869A1
:100980000027C00008D4E86940F08050E861E869B9
:10099000012700F0805000905C480168C90513D41D
:1009A0000168834641F480710160FFF7A7FD82462C
:1009B00006E000BFFFF7A2FDA0EB0A0064284ED8B6
:1009C000DBF80000C005F5D5E06801280AD008B1C1
:1009D000052813D0286A20F001002862286A20F038
:1009E000040002E0286A40F001002862E06841F259
:1009F000883B98B1FFF782FD82460BE0286A40F001
:100A000004002862EEE700BFFFF778FDA0EB0A01C3
:100A100059455AD8286A8007F6D50CE0FFF76EFDD5
:100A2000824605E0FFF76AFDA0EB0A0159454CD864
:100A3000286A8007F6D41FB1E86920F08050E86189
:100A4000E06988B36968C1F38101022944D00228B2
:100A5000C6F8608004D0FFF751FD044638E034E06A
:100A6000FFF74CFD074604E0FFF748FDC01B0228D6
:100A70002BD828688001F7D4206AB0F5803F05D1D3
:100A80006868A16820F4003008436860D4E9080170
:100A90000843696821F4741108436860C6F86090DF
:100AA000FFF72CFD044606E025E000BFFFF726FD1A
:100AB000001B022809D828688001F7D51BE000BF79
:100AC000FFF71CFD001B022802D90320BDE8F88FA8
:100AD00028688001F4D40EE00128F7D06868226A03
:100AE00000F48031914204D1616A00F470108842B0
:100AF00001D00120EAE70020E8E7000000100240F2
:100B00000000424280044242100000200070004079
:100B100070B5040009D0606A002540B125616561A7
:100B2000A56294F8510040B10CE0012070BD6068EE
:100B3000B0F5827FF4D0E561F2E784F850502046AA
:100B400000F040F8022084F851002068016821F08C
:100B500040010160A088218900F4827001F4044101
:100B60000843A18901F400610843217C01F00201DE
:100B70000843217D01F001010843218B01F400713C
:100B80000843217F01F03801084394F8201001F058
:100B900080010843218D01F4005108432168086059
:100BA000A069042101EA1040216848602068C169F9
:100BB00021F40061C1616565012084F851000020C5
:100BC00070BD000030B585B00024009401940294FB
:100BD000039400681449884223D11448816941F480
:100BE00080518161816901F480510491816941F0F2
:100BF0000401816180690E4D00F004000490A02082
:100C00000090022001900320039069462846FFF7D8
:100C100077FB4020CDE90004694628460294FFF79F
:100C20006FFB05B030BD00000030014000100240F5
:100C3000000801402DE9F84F044690F8510098460D
:100C400016460F460025012801D0022598E060686D
:100C50004FF0040BB0F5827F01D1A068F8B194F891
:100C60005000012826D04FF0010984F85090FFF77A
:100C700045FC8246002F7FD0002E7DD084F851B0F5
:100C800000206065A763A687E6872063A086E086CC
:100C900020646064A068B0F5004F0DD016E084F8C1
:100CA00051B013460A462046CDF8008000F024F9E2
:100CB000BDE8F88F0220FBE72068016821F04001C1
:100CC00001602068016821F48041016020680168AA
:100CD000490603D4016841F040010160E068D8B1E1
:100CE0003BE020688168C90709D0007BA16B0870D0
:100CF000A06B401CA063E08F401EE0870CE0FFF774
:100D0000FDFBA0EB0A01414503D3B8F1FF3F03D03F
:100D100006E0B8F1000F03D0E08F0028E1D11FE01A
:100D200003252BE020688168C90709D0C068A16B42
:100D30000880A06B801CA063E08F401EE0870CE061
:100D4000FFF7DCFBA0EB0A01414503D3B8F1FF3FFD
:100D500003D0E5E7B8F1000FE2D0E08F0028E1D141
:100D600052464146204600F0E4FC08B12020606570
:100D7000606D00E000E008B1012501E084F85190C9
:100D8000002084F85000284692E72DE9F84F0446E9
:100D900090F850000026984615468A4601280CD047
:100DA000012784F85070FFF7A9FB814694F85100A1
:100DB000B346012804D002269AE00220BDE8F88F4D
:100DC000BAF1000F6FD0002D6DD0032084F85100D0
:100DD000C4F854B0C4F830A0A586E586C4F838B08D
:100DE000A4F83CB0A4F83EB0C4F844B0C4F840B095
:100DF000A068B0F5004F09D12068016821F04001DA
:100E000001602068016841F4804101602068016848
:100E1000490603D4016841F040010160E068B0F583
:100E2000006F606803D058B3012D29D049E008B1A4
:100E3000012D1FD1206B21680088C86006E0206862
:100E40008168890709D5216B0988C160206B801CE6
:100E50002063E08E401EE0860CE0FFF74FFBA0EB26
:100E60000901414503D3B8F1FF3F03D006E0B8F1D3
:100E7000000F03D0E08E0028E1D125E0032635E005
:100E8000206B21680078087306E020688168890774
:100E90000AD5216B09780173206B401C2063E08E1A
:100EA000401EE0860DE01FE0FFF728FBA0EB0901E4
:100EB000414503D3B8F1FF3F03D0DFE7B8F1000F9E
:100EC000DCD0E08E0028E0D14A464146204600F0C2
:100ED0005EFC08B120206065A06818B92068C16870
:100EE00080680090606D08B1012601E084F85170BF
:100EF00084F850B0304661E72DE9FF4F81B00446D9
:100F000090F8500000260E9F1D4693464FF00109B1
:100F100001280FD04FF0010A84F850A0FFF7EEFA35
:100F2000804694F85100616801280DD0B1F5827FA8
:100F300008D103E0022005B0BDE8F08FA16809B92F
:100F4000042801D00226C9E00298002865D0BBF130
:100F5000000FFBD0002DF9D094F85100042802D0E6
:100F6000052084F8510000206065C4F838B0E5879A
:100F7000A58702992163E586A586206460642068C0
:100F80000168490603D4016841F040010160E0684E
:100F9000B0F5006F606803D0F0B3012D47D081E059
:100FA00008B1012D3CD1206B21680088C860206BFE
:100FB000801C2063E08E401EE08631E0206881685E
:100FC00089070FD5E18E69B1B9F1010F0AD1216B03
:100FD0000988C160206B801C2063E08E401EE08683
:100FE0004FF0000920688168C9070CD0E18F51B12A
:100FF000C068A16B0880A06B801CA063E08F401EBE
:10100000E0874FF00109FFF779FAA0EB0800B8423A
:1010100006D3781C04D001E009E05BE003265BE026
:10102000E08E0028CAD1E08F0028C7D140E0206BB5
:10103000216800780873206B401C2063E08E401EFE
:10104000E0862FE02068816889070FD5E18E69B1BD
:10105000B9F1010F0AD1216B09780173206B401C93
:101060002063E08E401EE0864FF000092068816812
:10107000C9070CD0E18F51B1C068A16B0870A06B9B
:10108000401CA063E08F401EE0874FF00109FFF78E
:1010900035FAA0EB0800B84202D3781C02D0BAE7B8
:1010A000002FB8D0E08E0028CCD1E08F0028C9D125
:1010B00042463946204600F06AFB18B1012620203E
:1010C00060650BE0A06818B92068C168806800906E
:1010D000606D08B1012601E084F851A0002084F879
:1010E0005000304627E710B5401EB0F1807F01D395
:1010F000012010BD4FF0E02460610F21601700F067
:101100004BFE0020A06107202061002010BD704729
:101110007047000070B590F83C20012A26D00124C9
:1011200080F83C40022280F83D2003685A689D68A0
:1011300022F070060A6832435A600D4B02689A42E8
:1011400008D0B2F1804F05D00A4B9A4202D00A4B28
:101150009A4204D1496825F080031943916080F8D0
:101160003D40002180F83C10084670BD022070BD53
:10117000002C0140000400400008004010B50400AD
:1011800003D094F83D0010B107E0012010BD00200D
:1011900084F83C00204600F01FF8022084F83D004F
:1011A000211D206800F0C0FB012084F8460084F86F
:1011B0003E0084F83F0084F8400084F8410084F841
:1011C000420084F8430084F8440084F8450084F821
:1011D0003D00002010BD000008B50068B0F1804F50
:1011E00012D10A48C16941F00101C161C069002200
:1011F00000F00100009011461C20FFF7EBF9BDE85C
:1012000008401C20FFF7D8B908BD000000100240BC
:1012100090F83D10012901D001207047022180F88B
:101220003D100168CA6842F00102CA6000680B49BB
:10123000884208D0B0F1804F05D00949884202D0D9
:101240000849884204D1816801F00701062903D0CA
:10125000016841F00101016000207047002C01404D
:10126000000400400008004070B5044690F83C00BF
:101270000025012817D0012684F83C60022084F85C
:101280003D002068826822F0770222F47F4282606B
:101290000868502838D00DDC20284FD005DC90B3EA
:1012A000102811D14AE0022070BD302846D04028D5
:1012B0000AD13BE060282FD070280DD0B0F5805FB8
:1012C00003D0B0F5005F12D0012584F83D60002006
:1012D00084F83C00284670BDCB68D1E90121206824
:1012E00000F058FB2068816841F0770109E0CB6885
:1012F000D1E90121206800F04DFB2068816841F4AC
:1013000080418160E1E719E0CA684968206800F01F
:1013100053FB5021206806E0CA684968206800F045
:101320005CFB6021206800F03FFBCEE7CA6849689B
:10133000206800F041FB40212068F4E72268014664
:101340001046F0E7704770B50446006801694FF039
:101350000005C943890715D4C168C943890711D459
:10136000E91E0161012020772068806980072046FE
:1013700002D0FFF7E7FF04E000F098F8204600F005
:1013800096F8257720680169C943490717D4C168D1
:10139000C943490713D46FF004010161022020778B
:1013A0002068806910F4407F204602D0FFF7CAFF12
:1013B00004E000F07BF8204600F079F825772068FB
:1013C0000169C943090716D4C168C943090712D482
:1013D0006FF008010161042020772068C069800750
:1013E000204602D0FFF7AEFF04E000F05FF8204691
:1013F00000F05DF8257720680169C943C90617D454
:10140000C168C943C90613D46FF0100101610820F7
:1014100020772068C06910F4407F204602D0FFF793
:1014200091FF04E000F042F8204600F040F82577F4
:1014300020680169C943C90708D1C168C943C90700
:1014400004D1891E0161204600F032F8206801694C
:10145000C943090609D4C168C943090605D46FF018
:10146000800101612046FFF752FE20680169C943EF
:10147000490609D4C168C943490605D46FF0400143
:101480000161204600F015F820680169C94389060A
:101490000BD4C168C943890607D46FF020010161EC
:1014A0002046BDE87040FFF733BE70BD70477047FF
:1014B0007047704770B5040004D094F841000025CF
:1014C00010B106E0012070BD84F84050204600F0C5
:1014D00023F8242084F841002068C16821F40051D9
:1014E000C160204600F08CFA2068016921F4904127
:1014F00001612068416921F02A0141612068C168C9
:1015000041F40051C1606564202084F8410084F8F2
:1015100042006563002070BD30B585B000240094A2
:1015200001940294039400681449884224D1144819
:10153000816941F480418161816901F480410491B4
:10154000816941F00401816180690E4D00F0040061
:1015500004904FF40070009002200190032003904B
:1015600069462846FEF7CCFE2815CDE900046946F9
:1015700028460294FEF7C4FE05B030BD0038014095
:101580000010024000080140FEE700002DE9F04392
:1015900085B0002628480096019602960396816938
:1015A00041F020018161816901F02001049181698C
:1015B00041F004018161816901F0040104918169B4
:1015C00041F0080181618069DFF8708000F0080057
:1015D0000490002210214046FEF78AFFDFF8609059
:1015E000002212214846FEF783FF1027012402251E
:1015F0000097CDE90145694640460395FEF780FE18
:10160000CDE90054CDE9026569464846FEF778FE0B
:10161000CDE9007469464846CDE90245FEF770FE03
:101620002020CDE90006694602944846FEF768FE90
:1016300005B0BDE8F0830000001002400008014042
:10164000000C0140104810B50E4901604FF4827142
:10165000416000218160C1604FF400720161C0E906
:1016600005120822C0E90721416281620A21C16294
:10167000FFF74EFA002803D0BDE81040FEF72CBE5D
:1016800010BD0000003001407800002010B586B089
:1016900000241748009401940294039404944FF09A
:1016A00080410594016041F61F41C0E9011442F2F6
:1016B0000F71C0E903148461FFF760FD08B1FEF704
:1016C0000BFE4FF48050009069460948FFF7CCFDAF
:1016D00008B1FEF701FE049404A905480594FFF73C
:1016E00019FD002801D0FEF7F7FD06B010BD00007F
:1016F000D00000200C4810B50A4901604FF4E131D8
:101700004160002181600C22C160C0E90412816146
:10171000C161FFF7CFFE002803D0BDE81040FEF7FF
:10172000DBBD10BD0038014018010020FEE7FEE7D8
:101730007047F8B5044640684FF48273984217D159
:10174000A0684FF48065B0F5004F01D0A8420FD1DA
:101750002068066826F0400606606068984207D157
:10176000A068A84204D100920B460022012103E0A8
:1017700000920B4600228021204600F019F8002834
:1017800004D0606D40F0200060650320F8BD38B5DE
:101790000B46009204460022802100F009F8002840
:1017A00004D0606D40F020006065032038BD00006B
:1017B0002DE9F8431E46914688460446089DFEF7EB
:1017C0009DFE401B351AFEF799FE07462548006826
:1017D000C0F3CB30684338E0701C37D0FEF78EFE84
:1017E000C01BA84203D215B1009860B32CE020685A
:1017F000416821F0E00141606068B0F5827F0BD163
:10180000A068B0F5004F02D0B0F5806F04D1206819
:10181000016821F040010160A06AB0F5005F09D1C4
:101820002068016821F4005101602068016841F4DA
:1018300000510160012084F85100002084F850001C
:101840000320BDE8F8830025401E009020688168D1
:1018500038EA010004D000214945BDD10020F0E75D
:101860000121F9E7100000207047FEF74DBE30B5AA
:101870008FB028216846FEF7C9FC14210AA8FEF79C
:10188000C5FC01210804CDE90010002402940225C2
:101890000491CDE907504FF4E01009906846FEF737
:1018A000A7FF08B172B6FEE70F20CDE90A054FF495
:1018B0008060CDE90C4002210AA80E94FEF7BCFE20
:1018C000002801D072B6FEE70FB030BD70470000AF
:1018D00070B502211048FEF703FE104C1048216835
:1018E00069B10521017006214170022100F0E4F880
:1018F00000202060BDE870400A48FFF724BD0125A4
:10190000057002214170032181700421C1700448D7
:1019100000F0D2F82560EDE7000C01400000002047
:1019200007020020D0000020F0B50268164B174CCB
:10193000174D4FF08047984205D0B84203D0A042DF
:1019400001D0A84203D122F070064A68324398427F
:1019500005D0B84203D0A04201D0A84203D122F45E
:101960004074CA6822434C6922F08002224302601C
:101970008A68C2620A688262984201D10969016379
:1019800001214161F0BD0000002C01400004004035
:101990000008004010B5846842EA032224F47F4422
:1019A0000A432243826010BD826822F070020A431B
:1019B00042F007018160704710B5036A046A24F0A1
:1019C00001040462846924F0F00444EA021423F060
:1019D0000A020A438461026210BD10B5036A046AF8
:1019E00024F010040462846923F0A00324F47044FA
:1019F00044EA023243EA01118261016210BD000033
:101A000070B5044600680169E26821F44051114351
:101A100001612169A0680843616908432168CA68B7
:101A200041F20C639A430243CA6020684169A2698B
:101A300021F44071114341611E492068884202D15E
:101A4000FEF7A0FE01E0FEF78DFE00EBC00101EB0A
:101A50000012606864218000B2FBF0F3B3FBF1F385
:101A60006FF018067343B2FBF0F5B2FBF0F605EB2E
:101A70008305322303EB0515B5FBF1F5B6FBF1F653
:101A800005F0F00505EB0615B2FBF0F6B2FBF0F041
:101A9000B0FBF1F06FF01802504306EB800003EB4F
:101AA0000010B0FBF1F0216800F00F0028448860BE
:101AB00070BD00000038014038B505460848084BA5
:101AC0000C4600880A4600909B1C2946022000F024
:101AD00021FC21462846BDE83840FEF775BB0000D2
:101AE000580000201FB51549154800F0EBFB1549BB
:101AF000154800F0F9FB00F049F81449002000F007
:101B000095F91349012000F091F912A30FCB8DE84C
:101B10000F006946012000F0AFF94FF4527000F059
:101B20006DF830B90221002341F28932084600F0F5
:101B3000B1FC6420FEF7D2FB1FBD0000CD1B0008E6
:101B4000BD1B0008F11B00087D1B00085E00002083
:101B5000F00100200202020202020202020202025C
:101B600002020202FEE700000A4601464FF0FF3380
:101B70000148FFF75FB800007800002008B5012198
:101B80006846FFF7F1FF9DF8000008BD10B50A4C4C
:101B9000002210212046FEF7ABFC0120FEF79EFB41
:101BA000012210212046FEF7A3FCBDE810404FF4AF
:101BB000C860FEF793BB0000000C0140002210211A
:101BC0000148FEF795BC00000008014001221021E9
:101BD0000148FEF78DBC0000000801400A4601469E
:101BE0004FF0FF330148FFF7D0B800007800002025
:101BF00001B501216846FFF7F1FF08BDF8B5144CA7
:101C00000546E068804760698047616AC5F3074020
:101C1000C5F3072699B1A26A8AB18DF800008DF844
:101C200001608DF80250032168469047E0698047C3
:101C30000546A0698047206980472846F8BD216A8B
:101C40008847216A30468847216AE8B28847EDE72D
:101C50002C0000202DE9F8431A4C05461746E06891
:101C60008846804760698047616AC5F30740C5F3CD
:101C70000726A1B1A26A92B18DF800008DF801602B
:101C80008DF80250032168469047626A3946404603
:101C90009047A069804720698047BDE8F883216AA2
:101CA0008847216A30468847216AE8B2884700257C
:101CB00005E0E069804708F805006D1CADB2BD4243
:101CC000F7D3E6E72C000020F8B5164C05460E4683
:101CD000E068804760698047A26A45F004058AB1E0
:101CE000280C8DF80000280A8DF801008DF80250AC
:101CF0008DF80360042168469047A06980472069F9
:101D00008047F8BD216AC5F307408847216AC5F3BB
:101D100007208847216AE8B28847216A3046884709
:101D2000EBE700002C000020F8B51A4C05461646DB
:101D3000E0680F46804760698047A26A45F0040565
:101D40009AB1280C8DF80000280A8DF801008DF852
:101D50000250032168469047A26A314638469047B0
:101D6000A069804720698047F8BD216AC5F3074014
:101D70008847216AC5F307208847216AE8B2884767
:101D8000002504E0216A785D88476D1CADB2B5423C
:101D9000F8D3E5E72C0000200907090E002804DB32
:101DA00000F1E02080F80014704700F00F0000F10F
:101DB000E02080F8141D704770B50446082802D949
:101DC0004FF0FF3070BD4FF4847000EB44100546B7
:101DD0001021FFF779FF2846FFF710FF0028FAD1FE
:101DE0004FF4027000EB44101F21FFF76DFF0D4907
:101DF0000120A0404A8882434A808A8882438A80A0
:101E00000949002021F814000649891D08554FF49E
:101E1000427000EB44142046FFF7F0FE0028FAD190
:101E2000012070BD140000206001002010B50C4698
:101E300006281ED2DFE800F003070B101418204616
:101E400000F008FD13E0204600F076FC0FE020785B
:101E5000BDE8104000F02ABD00F09AFC207006E0BA
:101E6000204600F035FD02E0204600F094FC002002
:101E700010BD4FF0FF3010BD2DE9F0410C460021A0
:101E800002464F1E08464FF498554FF4A056102AAC
:101E900063D2DFE802F0080B17131A1E222C364516
:101EA000484C5950555C00F02AFD4DE014B12046D5
:101EB00004F10801BDE8F04100F081BC208800F089
:101EC000FDFB41E000F01BFC05E0208800F0B4FCC5
:101ED0003AE000F023FC208036E02088010A284602
:101EE000FFF7F2FE21783046FFF7EEFE2CE0304699
:101EF000FFF784FE06462846FFF780FE06EB00202B
:101F0000E9E7174882782270C27862700279A2707D
:101F10004279E27082792271C0796071A17113E017
:101F200000F066FD10E0204600F077FD0CE0204652
:101F300000F01FFD08E02078BDE8F04100F092BD00
:101F400000F049FD05E020700020BDE8F08100F0C0
:101F500037FDC0B241B2491CF5D13846F5E7000063
:101F60002C00002038B54FF45270FFF747FE58B3ED
:101F7000222833D10A20FEF7B1F94FF4127420461B
:101F8000FFF73CFE400703D504212046FFF79CFEE7
:101F9000022000F029F8040020D0114D0246AB1CAD
:101FA00010490220009500F083F82888083C009032
:101FB000A2B2AB1C0B49022000F0ACF9BDE83840DE
:101FC00080210848FEF700B901B00023BDE8304089
:101FD000022141F28932084600F05CBA38BD0000A7
:101FE00058000020700100202DE9F04142F2086104
:101FF00001EB401542F20871002601EB401428461F
:10200000FFF7FCFD07462046FFF7F8FD00EB072031
:1020100007043F0C09D02846FFF7F0FD064620468E
:10202000FFF7ECFD00EB062086B2BE42E7D130465A
:10203000BDE8F0812DE9F04142F2080101EB4015C5
:1020400042F20811002601EB40142846FFF7D6FDA6
:1020500007462046FFF7D2FD00EB072007043F0CA0
:1020600009D02846FFF7CAFD06462046FFF7C6FD01
:1020700000EB062086B2BE42E7D13046BDE8F081D3
:10208000FEF74AFAFFF7F3FBFFF780FAFFF7DAFAF9
:10209000FFF730FBFFF7FAFAFFF724FD0348FFF7DD
:1020A000B7F800BFFFF75EFFFCE70000D00000209C
:1020B0002DE9FF4F002583B01F46904604460828AF
:1020C00003D9681E07B0BDE8F08F60014FF0010A28
:1020D0000830FFF793FD834600F00F00022806D07A
:1020E000032804D0042802D06FF00400EAE7B8F116
:1020F000000F05D0DFF8C49139F8140018B11EE0C4
:102100006FF00D00DEE74FF4427000EB44160AFA60
:1021100004FA2046FFF768FF05463046FFF76EFDDC
:1021200030B1674949881AEA010F06D01DB106E0AF
:102130006FF00300C6E70020C4E7002DE9D00BF0E4
:102140000701DFF87CA14FF484704FF0800B0AF197
:10215000060A00EB4416022922D003297CD0042968
:1021600052D02946204600F053FA29F81450304640
:102170004021FFF7A9FD3046FFF740FD0028FAD1C6
:1021800039F81410491B0904090C29F8141003D05C
:102190001AF8041041F001010AF80410284691E7EA
:1021A00039F814004D4670BB08226946204600F0FD
:1021B000FFF930464021FFF787FD3046FFF71EFD4F
:1021C0000028FAD19DF8000038709DF80100787061
:1021D0009DF80200B8709DF80300F87010999DF802
:1021E000040008809DF8051001EB0020109908807C
:1021F0009DF806009DF807105BE02A4620460499EA
:1022000000F0D6F9B3E72AE039F814004D4630BBA8
:1022100002226946204600F0CBF930464021FFF704
:1022200053FD3046FFF7EAFC0028FAD19DF8000084
:102230009DF801106FF0010202EB0020084480B20B
:1022400040F2EA5125F81400884206D92046FFF7EB
:10225000B3FD6FF47A7035E702E00AF804B003E0EA
:1022600039F814004D4630B135F814504046454514
:10227000C3D90546C1E706226946204600F098F911
:1022800030464021FFF720FD3046FFF7B7FC00281D
:10229000FAD19DF8000038709DF8010078709DF823
:1022A0000200B8709DF80300F8709DF804009DF8D6
:1022B000051001EB002025F81400CEE76001002096
:1022C00014000020054A18B111B1C2E90501704798
:1022D0000348506103489061704700002C000020C3
:1022E000FD260008FB260008074A10B513889C0548
:1022F000FDD518B111B1C2E9070110BD0348D06185
:102300000348106210BD00002C000020F9280008CE
:10231000FD2800082DE9F0471E46DDF8208015460F
:102320008A460446082803D94FF0FF30BDE8F087FD
:10233000670108374FF001093846FFF75FFC00F0EE
:102340000F00022806D0032804D0042802D06FF022
:102350000400EBE75DB13078717801EB0020B178D3
:1023600001EB0020F17811EB002003D00AE06FF0C0
:102370000D00DBE73846FFF741FC400702D46FF061
:102380000B00D3E7B8F1000F07D13846FFF736FC52
:10239000400702D46FF00A00C8E74FF4427000EB28
:1023A00044100746FFF72AFC422806D0222804D012
:1023B000322802D06FF00600B8E740F6084000EB84
:1023C000441004223146FFF7AFFC41F208004FEA07
:1023D000182100EB4410FFF777FC41F2081008F0D9
:1023E000FF0100EB4410FFF76FFC41F6087000EBB3
:1023F0004410FFF703FC4FF6FF7101EA802085428D
:1024000000D90546DFF8888009FA04F62046FFF770
:1024100011FE81463846FFF7F1FB38B1B8F80200EB
:10242000064206D04D4504D900207FE76FF0030037
:102430007CE74D45EAD82A465146204600F009F986
:102440004FF4847000EB441006462021FFF73CFC5B
:102450004FF4027000EB44143046FFF7CFFB002826
:10246000FAD12046FFF7CAFB00F01F00C10605D5D0
:1024700020461021FFF728FC284657E70007F0D533
:1024800020460821FFF720FC6FF00C004EE700000B
:10249000140000202DE9F8431D4617460E46044659
:1024A000082803D94FF0FF30BDE8F883012E08D08B
:1024B000022E0ED0032E0CD0042E0AD06FF0040092
:1024C000F2E7042269464FF47060FFF7C3FB0098FF
:1024D00048B169076FF00500E6D49DB1012E05D023
:1024E000022E0FD106E06FF00200DDE715F0210F9C
:1024F000DAD007E0A90601D52906D5D5E90601D528
:102500002906D1D52046FFF757FC600105F0F00100
:102510004FF0010831430830FFF7D6FB224E57B980
:102520003788781C80B2A0F57F413080F03902D125
:102530004FF4404030804FF48160390A00EB441082
:10254000FFF7C2FB4FF4A160F9B200EB4410FFF7B4
:10255000BBFB4FF4847000EB441007460121FFF7EA
:10256000B3FB3846FFF74AFB0028FAD108FA04F01B
:10257000718805F001028143A2400A437280B1884C
:102580008143B1800949002021F814000649891DC2
:1025900008554FF4427000EB44152846FFF72EFB18
:1025A0000028FAD060B27FE714000020600100200C
:1025B0002DE9F0475FEA02088946064626D042F632
:1025C000081000EB46152846FFF718FB074642F6B1
:1025D000080000EB46142046FFF710FB07EB002035
:1025E00087B2380200EB4610424649461830FFF7E2
:1025F00031FB07EB080086B2310A2046FFF764FB87
:10260000F1B22846BDE8F047FFF75EBBBDE8F087B2
:102610002DE9F041044642F6081000EB44150E4641
:102620002846FFF7EBFA074642F6080000EB441491
:102630002046FFF7E3FA07EB0020304486B2310A68
:102640002046FFF741FBF1B22846BDE8F041FFF715
:102650003BBB2DE9F0475FEA02088946064626D0D3
:1026600042F2085000EB46152846FFF7C7FA074626
:1026700042F2084000EB46142046FFF7BFFA07EB92
:10268000002087B2380200EB46104246494610301F
:10269000FFF74AFB07EB080086B2310A2046FFF736
:1026A00013FBF1B22846BDE8F047FFF70DBBBDE8CC
:1026B000F087007870470170704700002DE9F04105
:1026C000050A00F0F0014FF4A850FFF7FDFA0024CE
:1026D00001264FF4027700BF06FA04F0284204D026
:1026E00007EB44101F21FFF7EFFA641CE4B2082C3B
:1026F000F2D3BDE8F081704770477047704710B55E
:102700004FF4A850FFF77AFA00F0F0044FF4B850F5
:10271000FFF774FA04EB002080B210BD10B54FF43F
:10272000B050FFF76BFA04464FF4C050FFF766FA5B
:1027300004EB002080B210BD10B50446014606220D
:102740004FF41060FFF786FA042204F10E019001A5
:10275000FFF780FA042204F10A014FF4A060FFF7AA
:1027600079FA0422A11D4FF47060FFF773FA07484D
:102770000178A1744178E17481782175C078607521
:102780000248401E0078A07510BD00002500002002
:102790000020FFF733BA70B504464FF4D850FFF766
:1027A0002DFA20704FF4D050FFF728FA05464FF469
:1027B000C850FFF723FA05EB0020608070BD2DE9BB
:1027C000F0410D460646002400F099F84FF0FF381E
:1027D000AEB10022B05C204444B2102C17DC521C75
:1027E00052B2082AF6DB002441F60877315D07EB88
:1027F0004410FFF769FA641C64B2082CF6DBCDB113
:10280000002108462A5C114449B2102902DD4046E5
:10281000BDE8F081401C40B20828F3DB002441F6FB
:102820000866295D06EB4410FFF74EFA641C64B29B
:10283000082CF6DB0020EBE710B5C1B2040A4FF418
:10284000B050FFF741FA2146BDE810404FF4C050A8
:10285000FFF73ABA10B50446014606224FF410605D
:10286000FFF762FA042204F10E019001FFF75CFA0F
:10287000042204F10A014FF4A060FFF755FA042284
:10288000A11D4FF47060FFF74FFA0748A17C01705B
:10289000E17C4170217D8170617DC1700249A07D24
:1028A000491E087010BD00002500002010B5044628
:1028B00030F03A0002D04FF0FF3010BD0020FFF79B
:1028C0009DF940EA04010020FFF7FEF9002010BD49
:1028D00010B5044601784FF4D850FFF7F5F9608839
:1028E000010A4FF4C850FFF7EFF9A178BDE8104096
:1028F0004FF4D050FFF7E8B9002070477047F0B5AB
:1029000085B04FF41064062269462046FFF7A2F90D
:102910000422950102A92846FFF79CF94FF4A0660E
:10292000042203A93046FFF795F94FF4706704229B
:1029300004A93846FFF78EF980210020FFF7C4F97B
:102940000020FFF75BF9062269462046FFF7ECF905
:10295000042202A92846FFF7E7F9042203A930461A
:10296000FFF7E2F9042204A93846FFF7DDF905B0C4
:10297000F0BD10B504464FF43850FFF73FF9C0F3EF
:102980008011217000F0380001220021202811D090
:1029900038280FD0617010280ED018280CD02028AD
:1029A0000AD0A170082809D0182807D0202805D0FF
:1029B000E17010BD6270EEE7A270F3E7E27010BD47
:1029C00010B500244FF43850FFF718F9C00700D0B5
:1029D0000124204610BD10B500244FF43850FFF7F5
:1029E0000DF9C0F3C200062800D10124204610BD15
:1029F00010B54FF438542046FFF700F920F080015D
:102A00002046FFF761F92046FFF7F8F840F0800113
:102A10002046BDE81040FFF757B910B502780021F5
:102A2000012A00D140214278012A06D0C27880785C
:102A3000012A05D001280BD00CE041F0380109E053
:102A4000012802D041F0080104E041F0180101E042
:102A500041F010014FF43850FFF736F9BDE810404F
:102A6000FFF7C6BF70B504464FF438563046FFF73F
:102A7000C5F841064FF0FF351AD520F03800012C7B
:102A800010D040F038013046FFF71EF9FFF7B0FFD5
:102A90003046FFF7B3F8012C07D000F0380038B10A
:102AA000002070BD40F03001EDE700F03000F6E7A7
:102AB000284670BD010202030405060708090A0B37
:102AC0000C0D0E0F101000000000000000000102AD
:102AD00003040607080900000000010203040000C7
:102AE000002B0008000000207800000028010008EA
:102AF000782B0008780000207008000044010008CE
:102B000000000000010000001000000000000000B4
:102B10000024F40000C000000000000000000000DD
:102B20000000000000000000000000000102573516
:102B30003530300000000000F7260008F9260008B4
:102B4000FD260008FB260008B3260008B72600086B
:102B500000000000000000008A13C0A80102000865
:102B6000DC111111C0A80101FFFFFF00C0A8030183
:082B700090909090010000001C
:04000005080000ED02
:00000001FF
