:020000040800F2
:100000002008002089010008F7120008B911000833
:10001000F5120008D5020008B11500080000000024
:100020000000000000000000000000003114000883
:10003000D702000800000000F9120008331400087D
:10004000A3010008A3010008A3010008A301000800
:10005000A3010008A3010008A3010008A3010008F0
:10006000A3010008A3010008A3010008A3010008E0
:10007000A3010008A3010008A3010008A3010008D0
:10008000A3010008A3010008A3010008A3010008C0
:10009000A3010008A3010008A3010008A3010008B0
:1000A000A3010008A3010008A3010008A3010008A0
:1000B000A3010008A3010008A3010008A301000890
:1000C000A3010008A3010008A3010008A301000880
:1000D000A3010008A3010008A3010008A301000870
:1000E000A3010008A3010008A301000800F002F822
:1000F00000F03AF80AA090E8000C82448344AAF188
:100100000107DA4501D100F02FF8AFF2090EBAE885
:100110000F0013F0010F18BFFB1A43F0010318473B
:10012000FC2300001C240000103A24BF78C878C1CA
:10013000FAD8520724BF30C830C144BF04680C60ED
:10014000704700000023002400250026103A28BF35
:1001500078C1FBD8520728BF30C148BF0B60704739
:100160001FB51FBD10B510BD00F07AF81146FFF79E
:10017000F7FF01F0ABFC00F098F803B4FFF7F2FFD3
:1001800003BC00F0A1F80000094880470948004777
:10019000FEE7FEE7FEE7FEE7FEE7FEE7FEE7FEE737
:1001A000FEE7FEE704480549054A064B7047000094
:1001B00095140008ED00000820020020200800200F
:1001C00020040020200400204FF000020429C0F089
:1001D000128010F0030C00F01B80CCF1040CBCF179
:1001E000020F18BF00F8012BA8BF20F8022BA1EBCB
:1001F0000C0100F00DB85FEAC17C24BF00F8012BB0
:1002000000F8012B48BF00F8012B70474FF00002A7
:1002100000B5134694469646203922BFA0E80C50FC
:10022000A0E80C50B1F12001BFF4F7AF090728BFD7
:10023000A0E80C5048BF0CC05DF804EB890028BF53
:1002400040F8042B08BF704748BF20F8022B11F07C
:10025000804F18BF00F8012B7047704770477047F8
:10026000754600F02BF8AE4605006946534620F06F
:100270000700854618B020B5FFF794FFBDE8204081
:100280004FF000064FF000074FF000084FF0000B52
:1002900021F00701AC46ACE8C009ACE8C009ACE805
:1002A000C009ACE8C0098D46704710B50446AFF3ED
:1002B00000802046BDE81040FFF75FBF0048704750
:1002C000BC0100207047000001491820ABBEFEE7CA
:1002D00026000200FEE7704772B6FEE770B50446DE
:1002E00000F004F90546601C02D00448007804447C
:1002F00000F0FCF8401BA042FAD370BD00000020C3
:100300002DE9F84FDFF8B8910024A9F1040B23463A
:100310000F2709F1040AABF1040EC9E00125A5403D
:100320002A40AA427DD1674ED1F804C0ACEB060842
:10033000B44532D014DCBCF1030F3AD009DCBCF177
:10034000000F2AD0BCF1010F1CD0BCF1020F31D13B
:100350001DE0BCF1110F17D0BCF1120F2AD119E02A
:10036000B8F5881F19D006DCB8F5803F15D0B8F570
:10037000801F1FD111E0B8F5001F0ED0B8F5041F83
:1003800018D10AE0CB6815E0CB681B1D12E0CB68E2
:1003900008330FE0CB680C330CE08B682BB1012BDA
:1003A0004FF0080303D0456104E0042302E0056137
:1003B00000E00023FF2A01D8064601E000F1040610
:1003C0004FEA840501D9A5F12005D6F8008007FA87
:1003D00005FC28EA0C0803FA05F548EA0508C6F802
:1003E00000804D68ED0062D5374DAE6946F00106DC
:1003F000AE61AD6924F0030605F001050095334DAB
:1004000006EB050CDCF80850A607360F07FA06F8CD
:1004100025EA0805DFF8B880404503D14FF0000811
:1004200017E044E0DFF8AC80404502D14FF001080E
:100430000FE0DFF8A480404502D14FF0020808E049
:10044000DFF89880404502D14FF0030801E04FF0FB
:10045000040808FA06F848EA0508CCF808804D6850
:10046000D9F80060ED024D4601D5164300E09643F1
:100470002E604D68DAF80060AD02554601D516438E
:1004800000E096432E604D68DBF80060AD035D46EA
:1004900001D5164300E096432E604D68DEF80060FB
:1004A000ED03754601D5164300E096432E60641CAB
:1004B0000D682A46E5407FF431AFBDE8F88F0000B3
:1004C000080401400000111000100240000001402B
:1004D00000080140000C01400010014000140140E0
:1004E0000AB1016170470904FBE700000148806818
:1004F0007047000000000020024881680278114423
:100500008160704700000020074810B5016841F085
:1005100010010160032000F067F80F2000F006F8DA
:1005200000F024F8002010BD0020024070B50D4DF1
:1005300004464FF47A712878B1FBF0F00A49096853
:10054000B1FBF0F000F0B9FD48B9102C07D2002241
:100550002146501E00F028F800206C6070BD01207C
:1005600070BD0000000000200C0000200C4808B501
:10057000816941F001018161816901F0010100910E
:10058000C16941F08051C161C06900F080500090A4
:100590000448416821F0E06141F00071416008BD0C
:1005A0000010024000000140F0B40E4B1B680C46E6
:1005B000C3F30223C3F10705042D00D90425191D37
:1005C000072901D2002300E0DB1E012606FA05F10F
:1005D000491E214099409E40761E16403143F0BC92
:1005E00001F000B90CED00E0064900F007020868D0
:1005F0004FF6FF03184040EA0220034A1043086008
:10060000704700000CED00E00000FA052DE9F0470E
:100610000F46050061D0434E306800F00700B84235
:1006200009D2306820F0070038433060306800F0AD
:100630000700B84251D128683B4C810712D54007CA
:1006400003D5606840F4E06060602878000703D557
:10065000606840F4605060606068A96820F0F00055
:10066000084360602878C00728D06868012810D047
:100670002168022810D0890700292EDA616821F04C
:10068000030101436160FFF731FF804641F2883981
:100690000DE021688903EFE78901EDE7FFF726FF09
:1006A000A0EB0801494502D90320BDE8F087606846
:1006B000696800F00C00B0EB810FEFD1306800F0FA
:1006C0000700B8420BD9306820F00700384330608B
:1006D000306800F00700B84201D00120E5E7287833
:1006E000400705D56068E96820F4E0600843606071
:1006F0002878000706D56068296920F4605040EA30
:10070000C100606000F038F86168084AC1F3031165
:10071000515CC8400649086006480068FFF706FFBC
:100720000020C2E70020024000100240022500081D
:100730000C000020040000200448054900684968B6
:10074000044AC1F30221515CC84070470C000020EC
:100750000010024012250008044805490068496855
:10076000044AC1F3C221515CC84070470C0000200C
:1007700000100240122500080E4A51680E4801F090
:100780000C03042B11D0082B0FD10C48C1F3834369
:10079000C903C05C0AD55168084AC1F34041921EA2
:1007A000515C054A5043B0FBF1F07047044948439F
:1007B000704700000010024000127A00F224000886
:1007C00000093D002DE9F84F040070D02078C04D9D
:1007D000C00749D06868C0F38100012807D0686865
:1007E000C0F38100022809D16868C00306D52868D3
:1007F000800339D560680028E7D035E06068B0F53F
:10080000803F0BD010B1B0F5A02F11D0286820F494
:1008100080302860286820F4802002E0286840F4B6
:1008200080302860606890B1FFF760FE06460AE0FD
:10083000286840F480202860F0E700BFFFF756FEEC
:10084000801B642873D828688003F7D50CE0FFF775
:100850004DFE064605E000BFFFF748FE801B6428FA
:10086000F0D828688003F7D420789A4E80074FF09C
:1008700001094FF0000839D5686810F00C0F07D057
:100880006868C0F38100022809D16868C00306D4F3
:100890002868800714D52069012808D110E0206954
:1008A000B0B1C6F80090FFF721FE074605E00AE167
:1008B000FFF71CFEC01B0228C4D828688007F7D5A4
:1008C0002868616920F0F80040EAC10028600DE066
:1008D000C6F80080FFF70AFE074604E0FFF706FEB1
:1008E000C01B022823D828688007F7D42078000787
:1008F0002CD57948A169D9B1C0F80090FFF7F6FD71
:10090000074604E0FFF7F2FDC01B02280FD8686A13
:100910008007F7D571484FF4FA510068B0FBF1F049
:10092000009000BF0098411E0091FAD20EE080E0D6
:10093000C0F80080FFF7DAFD074604E0FFF7D6FDB8
:10094000C01B022875D8686A8007F7D42078400752
:1009500060D5E8690027C00008D4E86940F08050FD
:10096000E861E869012700F0805000905C48016868
:10097000C90513D40168834641F480710160FFF713
:10098000B5FD824606E000BFFFF7B0FDA0EB0A0010
:1009900064284ED8DBF80000C005F5D5E0680128D2
:1009A0000AD008B1052813D0286A20F00100286277
:1009B000286A20F0040002E0286A40F00100286262
:1009C000E06841F2883B98B1FFF790FD82460BE06A
:1009D000286A40F004002862EEE700BFFFF786FDBA
:1009E000A0EB0A0159455AD8286A8007F6D50CE0D1
:1009F000FFF77CFD824605E0FFF778FDA0EB0A01DA
:100A000059454CD8286A8007F6D41FB1E86920F010
:100A10008050E861E06988B36968C1F38101022907
:100A200044D00228C6F8608004D0FFF75FFD04467A
:100A300038E034E0FFF75AFD074604E0FFF756FDC3
:100A4000C01B02282BD828688001F7D4206AB0F593
:100A5000803F05D16868A16820F4003008436860D1
:100A6000D4E908010843696821F4741108436860F7
:100A7000C6F86090FFF73AFD044606E025E000BFA7
:100A8000FFF734FD001B022809D828688001F7D53C
:100A90001BE000BFFFF72AFD001B022802D903203C
:100AA000BDE8F88F28688001F4D40EE00128F7D063
:100AB0006868226A00F48031914204D1616A00F4CE
:100AC0007010884201D00120EAE70020E8E700002A
:100AD0000010024000004242800442420C0000200C
:100AE0000070004070B5040009D0606A002540B174
:100AF00025616561A56294F8510040B10CE00120C8
:100B000070BD6068B0F5827FF4D0E561F2E784F8EB
:100B10005050204600F040F8022084F85100206830
:100B2000016821F040010160A088218900F48270F1
:100B300001F404410843A18901F400610843217CC8
:100B400001F002010843217D01F001010843218BDE
:100B500001F400710843217F01F03801084394F843
:100B6000201001F080010843218D01F40051084359
:100B700021680860A069042101EA104021684860EA
:100B80002068C16921F40061C1616565012084F8B4
:100B90005100002070BD000030B585B000240094E5
:100BA00001940294039400681449884223D11448A4
:100BB000816941F480518161816901F4805104911E
:100BC000816941F00401816180690E4D00F00400EB
:100BD0000490A02000900220019003200390694619
:100BE0002846FFF78DFB4020CDE9000469462846E2
:100BF0000294FFF785FB05B030BD000000300140D6
:100C000000100240000801402DE9F84F044690F81A
:100C10005100984616460F460025012801D00225AE
:100C200098E060684FF0040BB0F5827F01D1A068B6
:100C3000F8B194F85000012826D04FF0010984F84B
:100C40005090FFF753FC8246002F7FD0002E7DD0BE
:100C500084F851B000206065A763A687E68720630B
:100C6000A086E08620646064A068B0F5004F0DD0D7
:100C700016E084F851B013460A462046CDF80080AD
:100C800000F024F9BDE8F88F0220FBE72068016836
:100C900021F0400101602068016821F48041016079
:100CA00020680168490603D4016841F040010160F1
:100CB000E068D8B13BE020688168C90709D0007BB3
:100CC000A16B0870A06B401CA063E08F401EE08702
:100CD0000CE0FFF70BFCA0EB0A01414503D3B8F190
:100CE000FF3F03D006E0B8F1000F03D0E08F0028EB
:100CF000E1D11FE003252BE020688168C90709D0F6
:100D0000C068A16B0880A06B801CA063E08F401EB0
:100D1000E0870CE0FFF7EAFBA0EB0A01414503D3B3
:100D2000B8F1FF3F03D0E5E7B8F1000FE2D0E08F64
:100D30000028E1D152464146204600F0DEFA08B1D3
:100D400020206065606D00E000E008B1012501E051
:100D500084F85190002084F85000284692E72DE94D
:100D6000F84F044690F850000026984615468A46EB
:100D700001280CD0012784F85070FFF7B7FB81469B
:100D800094F85100B346012804D002269AE00220CC
:100D9000BDE8F88FBAF1000F6FD0002D6DD00320A1
:100DA00084F85100C4F854B0C4F830A0A586E58694
:100DB000C4F838B0A4F83CB0A4F83EB0C4F844B0CD
:100DC000C4F840B0A068B0F5004F09D120680168B0
:100DD00021F0400101602068016841F48041016018
:100DE00020680168490603D4016841F040010160B0
:100DF000E068B0F5006F606803D058B3012D29D0CA
:100E000049E008B1012D1FD1206B21680088C8601E
:100E100006E020688168890709D5216B0988C160CF
:100E2000206B801C2063E08E401EE0860CE0FFF704
:100E30005DFBA0EB0901414503D3B8F1FF3F03D0AF
:100E400006E0B8F1000F03D0E08E0028E1D125E0E4
:100E5000032635E0206B21680078087306E02068DF
:100E6000816889070AD5216B09780173206B401CC2
:100E70002063E08E401EE0860DE01FE0FFF736FBAA
:100E8000A0EB0901414503D3B8F1FF3F03D0DFE7F1
:100E9000B8F1000FDCD0E08E0028E0D14A46414690
:100EA000204600F058FA08B120206065A06818B903
:100EB0002068C16880680090606D08B1012601E07B
:100EC00084F8517084F850B0304661E72DE9FF4F47
:100ED00081B0044690F8500000260E9F1D469346B0
:100EE0004FF0010901280FD04FF0010A84F850A0FB
:100EF000FFF7FCFA804694F85100616801280DD094
:100F0000B1F5827F08D103E0022005B0BDE8F08F83
:100F1000A16809B9042801D00226C9E00298002876
:100F200065D0BBF1000FFBD0002DF9D094F8510033
:100F3000042802D0052084F8510000206065C4F820
:100F400038B0E587A58702992163E586A5862064E8
:100F5000606420680168490603D4016841F04001DB
:100F60000160E068B0F5006F606803D0F0B3012D58
:100F700047D081E008B1012D3CD1206B2168008869
:100F8000C860206B801C2063E08E401EE08631E04C
:100F90002068816889070FD5E18E69B1B9F1010F29
:100FA0000AD1216B0988C160206B801C2063E08E10
:100FB000401EE0864FF0000920688168C9070CD008
:100FC000E18F51B1C068A16B0880A06B801CA06349
:100FD000E08F401EE0874FF00109FFF787FAA0EB92
:100FE0000800B84206D3781C04D001E009E05BE0B9
:100FF00003265BE0E08E0028CAD1E08F0028C7D12D
:1010000040E0206B216800780873206B401C20634F
:10101000E08E401EE0862FE02068816889070FD5AA
:10102000E18E69B1B9F1010F0AD1216B0978017321
:10103000206B401C2063E08E401EE0864FF00009CC
:1010400020688168C9070CD0E18F51B1C068A16BDD
:101050000870A06B401CA063E08F401EE0874FF03B
:101060000109FFF743FAA0EB0800B84202D3781C4D
:1010700002D0BAE7002FB8D0E08E0028CCD1E08FA4
:101080000028C9D142463946204600F064F918B11B
:101090000126202060650BE0A06818B92068C168AF
:1010A00080680090606D08B1012601E084F851A0CD
:1010B000002084F85000304627E710B5401EB0F1FC
:1010C000807F01D3012010BD4FF0E02460610F212B
:1010D000601700F087FB0020A0610720206100203E
:1010E00010BD70B5040004D094F84100002510B183
:1010F00006E0012070BD84F84050204600F024F83E
:10110000242084F841002068C16821F40051C160A6
:10111000204600F0C1F92068016921F49041016185
:101120002068416921F02A0141612068C16841F4C9
:101130000051C1606564202084F8410084F84200B9
:101140006563002070BD000030B585B000240094B8
:1011500001940294039400681449884224D11448ED
:10116000816941F480418161816901F48041049188
:10117000816941F00401816180690E4D00F0040035
:1011800004904FF40070009002200190032003901F
:1011900069462846FFF7B4F82815CDE900046946EA
:1011A00028460294FFF7ACF805B030BD0038014086
:1011B0000010024000080140FEE700002DE9F04366
:1011C00085B000262848009601960296039681690C
:1011D00041F020018161816901F020010491816960
:1011E00041F004018161816901F004010491816988
:1011F00041F0080181618069DFF8708000F008002B
:101200000490002210214046FFF76AF9DFF8609051
:10121000002212214846FFF763F910270124022516
:101220000097CDE90145694640460395FFF768F808
:10123000CDE90054CDE9026569464846FFF760F8FC
:10124000CDE9007469464846CDE90245FFF758F8F4
:101250002020CDE90006694602944846FFF750F881
:1012600005B0BDE8F0830000001002400008014016
:10127000000C0140104810B50E4901604FF4827116
:10128000416000218160C1604FF400720161C0E9DA
:1012900005120822C0E90721416281620A21C16268
:1012A000FFF720FC002803D0BDE81040FFF714B87A
:1012B00010BD000000300140740000200C4810B543
:1012C0000A4901604FF4E1314160002181600C2244
:1012D000C160C0E904128161C161FFF702FF00280B
:1012E00003D0BDE81040FEF7F7BF10BD0038014045
:1012F000CC000020FEE7FEE77047F8B504464068E2
:101300004FF48273984217D1A0684FF48065B0F50E
:10131000004F01D0A8420FD12068066826F0400691
:1013200006606068984207D1A068A84204D1009284
:101330000B460022012103E000920B46002280218F
:10134000204600F019F8002804D0606D40F020001D
:1013500060650320F8BD38B50B46009204460022B4
:10136000802100F009F8002804D0606D40F02000D2
:101370006065032038BD00002DE9F8431E46914604
:1013800088460446089DFFF7B1F8401B351AFFF761
:10139000ADF8074625480068C0F3CB30684338E015
:1013A000701C37D0FFF7A2F8C01BA84203D215B1BA
:1013B000009860B32CE02068416821F0E0014160B2
:1013C0006068B0F5827F0BD1A068B0F5004F02D005
:1013D000B0F5806F04D12068016821F04001016000
:1013E000A06AB0F5005F09D12068016821F40051BE
:1013F00001602068016841F400510160012084F817
:101400005100002084F850000320BDE8F883002537
:10141000401E00902068816838EA010004D0002155
:101420004945BDD10020F0E70121F9E70C0000207B
:101430007047FFF761B830B58FB028216846FEF7D6
:10144000E5FE14210AA8FEF7E1FE01210804CDE91A
:1014500000100024029402250491CDE907504FF4B6
:10146000E01009906846FFF7ADF908B172B6FEE7E3
:101470000F20CDE90A054FF48060CDE90C40022130
:101480000AA80E94FFF7C2F8002801D072B6FEE752
:101490000FB030BD7047000070B5044600680169A8
:1014A000E26821F44051114301612169A0680843B9
:1014B000616908432168CA6841F20C639A43024398
:1014C000CA6020684169A26921F4407111434161F9
:1014D0001E492068884202D1FFF73EF901E0FFF77C
:1014E0002BF900EBC00101EB001260686421800061
:1014F000B2FBF0F3B3FBF1F36FF018067343B2FBEA
:10150000F0F5B2FBF0F605EB8305322303EB05158E
:10151000B5FBF1F5B6FBF1F605F0F00505EB0615A8
:10152000B2FBF0F6B2FBF0F0B0FBF1F06FF0180296
:10153000504306EB800003EB0010B0FBF1F0216894
:1015400000F00F002844886070BD000000380140A2
:101550001FB50D490D4800F0D3FB0D490D4800F0B3
:10156000E1FB00F039F80C49002000F085F90B4947
:10157000012000F081F90AA30FCB8DE80F00694626
:10158000012000F09FF91FBD191600080916000878
:101590003D160008C91500085A000020A4010020CB
:1015A000020202020202020202020202020202021B
:1015B000FEE700000A4601464FF0FF330148FFF7FF
:1015C00023BB00007400002008B501216846FFF726
:1015D000F1FF9DF8000008BD10B50A4C0022102153
:1015E0002046FEF77DFF0120FEF778FE0122102144
:1015F0002046FEF775FFBDE810404FF4C860FEF7C7
:101600006DBE0000000C0140002210210148FEF7D1
:1016100067BF000000080140012210210148FEF7C9
:101620005FBF0000000801400A4601464FF0FF334B
:101630000148FFF794BB00007400002001B50121B0
:101640006846FFF7F1FF08BDF8B5144C0546E068A1
:10165000804760698047616AC5F30740C5F3072684
:1016600099B1A26A8AB18DF800008DF801608DF8F9
:101670000250032168469047E06980470546A0690B
:101680008047206980472846F8BD216A8847216A3B
:1016900030468847216AE8B28847EDE728000020F5
:1016A0002DE9F8431A4C05461746E06888468047FE
:1016B00060698047616AC5F30740C5F30726A1B199
:1016C000A26A92B18DF800008DF801608DF8025089
:1016D000032168469047626A394640469047A069B0
:1016E000804720698047BDE8F883216A8847216ADE
:1016F00030468847216AE8B28847002505E0E0695E
:10170000804708F805006D1CADB2BD42F7D3E6E78F
:1017100028000020F8B5164C05460E46E0688047C4
:1017200060698047A26A45F004058AB1280C8DF8EB
:101730000000280A8DF801008DF802508DF8036032
:10174000042168469047A069804720698047F8BD1A
:10175000216AC5F307408847216AC5F307208847F7
:10176000216AE8B28847216A30468847EBE70000E3
:1017700028000020F8B51A4C05461646E0680F46CA
:10178000804760698047A26A45F004059AB1280C39
:101790008DF80000280A8DF801008DF80250032111
:1017A00068469047A26A314638469047A06980470C
:1017B00020698047F8BD216AC5F307408847216A40
:1017C000C5F307208847216AE8B28847002504E06E
:1017D000216A785D88476D1CADB2B542F8D3E5E764
:1017E000280000200907090E002804DB00F1E02092
:1017F00080F80014704700F00F0000F1E02080F83E
:10180000141D704770B50446082802D94FF0FF3008
:1018100070BD4FF4847000EB441005461021FFF7B3
:1018200079FF2846FFF710FF0028FAD14FF4027025
:1018300000EB44101F21FFF76DFF0D490120A04070
:101840004A8882434A808A8882438A8009490020E4
:1018500021F814000649891D08554FF4427000EB29
:1018600044142046FFF7F0FE0028FAD1012070BD95
:10187000100000201401002010B50C4606281ED2CE
:10188000DFE800F003070B101418204600F000FDFD
:1018900013E0204600F06EFC0FE02078BDE8104019
:1018A00000F022BD00F092FC207006E0204600F01F
:1018B0002DFD02E0204600F08CFC002010BD4FF012
:1018C000FF3010BD2DE9F0410C46002102464F1EAD
:1018D00008464FF498554FF4A056102A63D2DFE81B
:1018E00002F0080B17131A1E222C3645484C59508B
:1018F000555C00F022FD4DE014B1204604F10801D2
:10190000BDE8F04100F079BC208800F0F5FB41E033
:1019100000F013FC05E0208800F0ACFC3AE000F099
:101920001BFC208036E02088010A2846FFF7F2FEE3
:1019300021783046FFF7EEFE2CE03046FFF784FEBC
:1019400006462846FFF780FE06EB0020E9E7174829
:1019500082782270C27862700279A2704279E27055
:1019600082792271C0796071A17113E000F05EFD8F
:1019700010E0204600F06FFD0CE0204600F017FD5F
:1019800008E02078BDE8F04100F08ABD00F041FD9C
:1019900005E020700020BDE8F08100F02FFDC0B20E
:1019A00041B2491CF5D13846F5E700002800002077
:1019B00038B54FF45270FFF747FE58B3222833D1A1
:1019C0000A20FEF78BFC4FF412742046FFF73CFE12
:1019D000400703D504212046FFF79CFE022000F0BB
:1019E00029F8040020D0114D0246AB1C10490220FA
:1019F000009500F07BF82888083C0090A2B2AB1C50
:101A00000B49022000F0A4F9BDE8384080210848C5
:101A1000FEF7DABB01B00023BDE83040022141F2FD
:101A20008832084600F054BA38BD00005400002047
:101A3000240100202DE9F04142F2086101EB40153C
:101A400042F20871002601EB40142846FFF7FCFD26
:101A500007462046FFF7F8FD00EB072007043F0C80
:101A600009D02846FFF7F0FD06462046FFF7ECFDBB
:101A700000EB062086B2BE42E7D13046BDE8F081D9
:101A80002DE9F04142F2080101EB401542F2081144
:101A9000002601EB40142846FFF7D6FD07462046F6
:101AA000FFF7D2FD00EB072007043F0C09D02846C2
:101AB000FFF7CAFD06462046FFF7C6FD00EB0620ED
:101AC00086B2BE42E7D13046BDE8F081FEF71CFD8C
:101AD000FFF7B1FCFFF772FBFFF7CCFBFFF7EEFB64
:101AE000FFF736FDFFF764FFFCE700002DE9FF4F2D
:101AF000002583B01F4690460446082803D9681E77
:101B000007B0BDE8F08F60014FF0010A0830FFF721
:101B10009BFD834600F00F00022806D0032804D066
:101B2000042802D06FF00400EAE7B8F1000F05D0F6
:101B3000DFF8C49139F8140018B11EE06FF00D0001
:101B4000DEE74FF4427000EB44160AFA04FA20462E
:101B5000FFF770FF05463046FFF776FD30B1674965
:101B600049881AEA010F06D01DB106E06FF00300A4
:101B7000C6E70020C4E7002DE9D00BF00701DFF82D
:101B80007CA14FF484704FF0800B0AF1060A00EB41
:101B90004416022922D003297CD0042952D0294698
:101BA000204600F053FA29F8145030464021FFF740
:101BB000B1FD3046FFF748FD0028FAD139F814107E
:101BC000491B0904090C29F8141003D01AF8041051
:101BD00041F001010AF80410284691E739F8140091
:101BE0004D4670BB08226946204600F0FFF930469A
:101BF0004021FFF78FFD3046FFF726FD0028FAD180
:101C00009DF8000038709DF8010078709DF8020082
:101C1000B8709DF80300F87010999DF804000880D2
:101C20009DF8051001EB0020109908809DF8060032
:101C30009DF807105BE02A462046049900F0D6F98B
:101C4000B3E72AE039F814004D4630BB022269465A
:101C5000204600F0CBF930464021FFF75BFD3046CF
:101C6000FFF7F2FC0028FAD19DF800009DF8011062
:101C70006FF0010202EB0020084480B240F2EA510A
:101C800025F81400884206D92046FFF7BBFD6FF403
:101C90007A7035E702E00AF804B003E039F814007E
:101CA0004D4630B135F8145040464545C3D9054638
:101CB000C1E706226946204600F098F930464021E7
:101CC000FFF728FD3046FFF7BFFC0028FAD19DF84A
:101CD000000038709DF8010078709DF80200B8701F
:101CE0009DF80300F8709DF804009DF8051001EBC5
:101CF000002025F81400CEE7140100201000002079
:101D0000054A18B111B1C2E9050170470348506195
:101D10000348906170470000280000203921000826
:101D200037210008074A10B513889C05FDD518B166
:101D300011B1C2E9070110BD0348D0610348106228
:101D400010BD0000280000203523000839230008BA
:101D50002DE9F0471E46DDF8208015468A460446E8
:101D6000082803D94FF0FF30BDE8F0876701083736
:101D70004FF001093846FFF767FC00F00F0002281A
:101D800006D0032804D0042802D06FF00400EBE74B
:101D90005DB13078717801EB0020B17801EB002063
:101DA000F17811EB002003D00AE06FF00D00DBE7C3
:101DB0003846FFF749FC400702D46FF00B00D3E729
:101DC000B8F1000F07D13846FFF73EFC400702D4B8
:101DD0006FF00A00C8E74FF4427000EB441007466A
:101DE000FFF732FC422806D0222804D0322802D045
:101DF0006FF00600B8E740F6084000EB44100422FC
:101E00003146FFF7B7FC41F208004FEA182100EB1A
:101E10004410FFF77FFC41F2081008F0FF0100EBCF
:101E20004410FFF777FC41F6087000EB4410FFF711
:101E30000BFC4FF6FF7101EA8020854200D9054670
:101E4000DFF8888009FA04F62046FFF719FE81467C
:101E50003846FFF7F9FB38B1B8F80200064206D061
:101E60004D4504D900207FE76FF003007CE74D4526
:101E7000EAD82A465146204600F009F94FF484700A
:101E800000EB441006462021FFF744FC4FF402709B
:101E900000EB44143046FFF7D7FB0028FAD1204668
:101EA000FFF7D2FB00F01F00C10605D52046102128
:101EB000FFF730FC284657E70007F0D520460821F9
:101EC000FFF728FC6FF00C004EE700001000002028
:101ED0002DE9F8431D4617460E460446082803D947
:101EE0004FF0FF30BDE8F883012E08D0022E0ED04F
:101EF000032E0CD0042E0AD06FF00400F2E7042267
:101F000069464FF47060FFF7CBFB009848B1690752
:101F10006FF00500E6D49DB1012E05D0022E0FD141
:101F200006E06FF00200DDE715F0210FDAD007E0E0
:101F3000A90601D52906D5D5E90601D52906D1D5A9
:101F40002046FFF75FFC600105F0F0014FF001084B
:101F500031430830FFF7DEFB224E57B93788781C33
:101F600080B2A0F57F413080F03902D14FF440407B
:101F700030804FF48160390A00EB4410FFF7CAFB50
:101F80004FF4A160F9B200EB4410FFF7C3FB4FF42C
:101F9000847000EB441007460121FFF7BBFB384675
:101FA000FFF752FB0028FAD108FA04F0718805F017
:101FB00001028143A2400A437280B1888143B1800B
:101FC0000949002021F814000649891D08554FF4DD
:101FD000427000EB44152846FFF736FB0028FAD084
:101FE00060B27FE710000020140100202DE9F047C7
:101FF0005FEA02088946064626D042F6081000EB42
:1020000046152846FFF720FB074642F6080000EB7E
:1020100046142046FFF718FB07EB002087B2380272
:1020200000EB4610424649461830FFF739FB07EBF4
:10203000080086B2310A2046FFF76CFBF1B2284651
:10204000BDE8F047FFF766BBBDE8F0872DE9F0413A
:10205000044642F6081000EB44150E462846FFF7EA
:10206000F3FA074642F6080000EB44142046FFF757
:10207000EBFA07EB0020304486B2310A2046FFF726
:1020800049FBF1B22846BDE8F041FFF743BB2DE91B
:10209000F0475FEA02088946064626D042F2085019
:1020A00000EB46152846FFF7CFFA074642F20840F4
:1020B00000EB46142046FFF7C7FA07EB002087B273
:1020C000380200EB4610424649461030FFF752FBFB
:1020D00007EB080086B2310A2046FFF71BFBF1B27E
:1020E0002846BDE8F047FFF715BBBDE8F08700784C
:1020F00070470170704700002DE9F041050A00F0BB
:10210000F0014FF4A850FFF705FB002401264FF41F
:10211000027700BF06FA04F0284204D007EB44100F
:102120001F21FFF7F7FA641CE4B2082CF2D3BDE8D4
:10213000F081704770477047704710B54FF4A85052
:10214000FFF782FA00F0F0044FF4B850FFF77CFA82
:1021500004EB002080B210BD10B54FF4B050FFF773
:1021600073FA04464FF4C050FFF76EFA04EB0020F8
:1021700080B210BD10B50446014606224FF410602F
:10218000FFF78EFA042204F10E019001FFF788FA9E
:10219000042204F10A014FF4A060FFF781FA04223F
:1021A000A11D4FF47060FFF77BFA07480178A17416
:1021B0004178E17481782175C07860750248401ECD
:1021C0000078A07510BD0000210000200020FFF75E
:1021D0003BBA70B504464FF4D850FFF735FA20707B
:1021E0004FF4D050FFF730FA05464FF4C850FFF7D0
:1021F0002BFA05EB0020608070BD2DE9F0410D4603
:102200000646002400F099F84FF0FF38AEB10022E6
:10221000B05C204444B2102C17DC521C52B2082A85
:10222000F6DB002441F60877315D07EB4410FFF739
:1022300071FA641C64B2082CF6DBCDB100210846AB
:102240002A5C114449B2102902DD4046BDE8F08104
:10225000401C40B20828F3DB002441F60866295DE3
:1022600006EB4410FFF756FA641C64B2082CF6DB48
:102270000020EBE710B5C1B2040A4FF4B050FFF7ED
:1022800049FA2146BDE810404FF4C050FFF742BA6A
:1022900010B50446014606224FF41060FFF76AFAB3
:1022A000042204F10E019001FFF764FA042204F104
:1022B0000A014FF4A060FFF75DFA0422A11D4FF45C
:1022C0007060FFF757FA0748A17C0170E17C41700C
:1022D000217D8170617DC1700249A07D491E087019
:1022E00010BD00002100002010B5044630F03A0077
:1022F00002D04FF0FF3010BD0020FFF7A5F940EAF3
:1023000004010020FFF706FA002010BD10B50446B6
:1023100001784FF4D850FFF7FDF96088010A4FF4B7
:10232000C850FFF7F7F9A178BDE810404FF4D0503E
:10233000FFF7F0B9002070477047F0B585B04FF453
:102340001064062269462046FFF7AAF90422950187
:1023500002A92846FFF7A4F94FF4A066042203A9B6
:102360003046FFF79DF94FF47067042204A9384600
:10237000FFF796F980210020FFF7CCF90020FFF746
:1023800063F9062269462046FFF7F4F9042202A900
:102390002846FFF7EFF9042203A93046FFF7EAF9D0
:1023A000042204A93846FFF7E5F905B0F0BD10B5E1
:1023B00004464FF43850FFF747F9C0F380112170FD
:1023C00000F0380001220021202811D038280FD039
:1023D000617010280ED018280CD020280AD0A170C7
:1023E000082809D0182807D0202805D0E17010BD92
:1023F0006270EEE7A270F3E7E27010BD10B5002442
:102400004FF43850FFF720F9C00700D001242046D0
:1024100010BD10B500244FF43850FFF715F9C0F384
:10242000C200062800D10124204610BD10B54FF48B
:1024300038542046FFF708F920F080012046FFF7C6
:1024400069F92046FFF700F940F080012046BDE819
:102450001040FFF75FB910B502780021012A00D1C2
:1024600040214278012A06D0C2788078012A05D01E
:1024700001280BD00CE041F0380109E0012802D01E
:1024800041F0080104E041F0180101E041F01001C1
:102490004FF43850FFF73EF9BDE81040FFF7C6BFD4
:1024A00070B504464FF438563046FFF7CDF8410674
:1024B0004FF0FF351AD520F03800012C10D040F035
:1024C00038013046FFF726F9FFF7B0FF3046FFF737
:1024D000BBF8012C07D000F0380038B1002070BDE7
:1024E00040F03001EDE700F03000F6E7284670BD1F
:1024F000010202030405060708090A0B0C0D0E0F62
:102500001010000000000000000001020304060794
:102510000809000000000102030400003C25000837
:10252000000000207400000028010008B025000809
:1025300074000020AC070000440100080100000006
:1025400010000000000000000024F40000C00000A3
:10255000000000000000000000000000000000007B
:102560000000000001025735353030000000000047
:1025700033210008352100083921000837210008DF
:10258000EF200008F3200008000000000000000019
:102590008813C0A801020008DC111111C0A80101B4
:1025A000FFFFFF00C0A80301909090900100000081
:04000005080000ED02
:00000001FF
