:020000040800F2
:10000000900C00209D010008C5130008C7130008CC
:10001000C9130008CB130008CD130008000000002E
:10002000000000000000000000000000D1130008E4
:10003000CF13000800000000D3130008D5130008F8
:10004000B7010008B7010008B7010008B7010008B0
:10005000B7010008B7010008B7010008B7010008A0
:10006000B7010008B7010008B7010008B701000890
:10007000B7010008B7010008B7010008B701000880
:10008000B7010008B7010008B7010008B701000870
:10009000B7010008B7010008B7010008B701000860
:1000A000B7010008B7010008B7010008B701000850
:1000B000B7010008B7010008B7010008B701000840
:1000C000B7010008B7010008B7010008B701000830
:1000D000B7010008B7010008B7010008B701000820
:1000E000B7010008B7010008B7010008B701000810
:1000F000B7010008B7010008B7010008B701000800
:10010000B7010008B7010008B7010008B7010008EF
:10011000B7010008B7010008B7010008B7010008DF
:10012000B7010008B7010008B7010008B7010008CF
:10013000B7010008B7010008B7010008B7010008BF
:10014000B7010008B7010008B7010008B7010008AF
:10015000B7010008B7010008B7010008B70100089F
:10016000B7010008B7010008B7010008B70100088F
:10017000B7010008B7010008B7010008B70100087F
:10018000B7010008B7010008DFF80CD002F06EFCE0
:1001900000480047CB110008900C0020064880471B
:1001A00006480047FEE7FEE7FEE7FEE7FEE7FEE75C
:1001B000FEE7FEE7FEE7FEE76302000889010008AC
:1001C0000CB500205449019000900A6842F4803236
:1001D0000A604FF4A0430A6802F400320092019AC8
:1001E000521C0192009A12B9019A9A42F3D10A68FC
:1001F000920334D50120009047484030026842F015
:10020000805202604548026842F44042026042481F
:10021000083002680260026842F40042026002682C
:1002200042F4A0520260031F3D4A1A600A6842F07D
:1002300080720A600A689201FCD53A4A40F2057160
:100240001160016821F003010160016841F00201C1
:1002500001600168C1F381010229FAD10CBD00904F
:100260000CBD314810B5016841F4700101602A48A5
:10027000016841F001010160274A00210832116044
:1002800002682A4B1A400260031D294A1A6002685C
:1002900022F48022026020480C300160FFF790FFBA
:1002A00021494FF000608039086010BD70B51A4CCC
:1002B000083420681F4A10F00C011F4804D01F4D5D
:1002C000042903D0082903D002601BE0056019E06F
:1002D0001149091D0B68C3F380560B6803F03F03F7
:1002E00016B1B5FBF3F201E0B2FBF3F20B6809685B
:1002F000C3F388135A43C1F30141491C4900B2FBBF
:10030000F1F1016021680C4AC1F30311121D515C27
:100310000268CA40026070BD0038024000700040B0
:1003200019464007003C024088ED00E0FFFFF6FE62
:10033000103000240024F4000000002040787D01EB
:100340002849084328490860704730B50F22C4780F
:1003500001780123FCB1244C246801F1E02104F46C
:10036000E064C4F5E064C4F30724C4F10405E2408A
:100370004478AC408578154025432A0181F8002453
:10038000007800F01F018B404009800000F1E02060
:10039000C0F8003130BD01F01F00834048098000E3
:1003A00000F1E020C0F8803130BD104A1140014317
:1003B0000D48001F016070470B4A121D002911688B
:1003C00001D0014300E08143116070474FF0E0210C
:1003D0000428086903D020F004000861704740F049
:1003E0000400FAE70000FA050CED00E080FFFF1FB3
:1003F000824910B5884206D10121084600F0AFFAC3
:10040000002101205BE07E49884206D101210220C3
:1004100000F0A5FA0021022051E07A49884206D175
:100420000121042000F09BFA0021042047E07649D6
:10043000884206D10121082000F091FA002108200D
:100440003DE07249884206D10121102000F087FA70
:100450000021102033E06E49884206D1012120207E
:1004600000F07DFA0021202029E06A49884206D167
:100470000121402000F073FA002140201FE066496E
:10048000884206D10121802000F069FA00218020F5
:1004900015E06249884202D1012184150AE06049D1
:1004A000884202D10121441504E05E4988420AD104
:1004B00001210415204600F052FA00212046BDE833
:1004C000104000F04CBA10BDF0B500230124032702
:1004D0000D6804FA03F21540954242D1D0F800C0ED
:1004E0005E0007FA06F52CEA050CC0F800C091F88A
:1004F00004C0D0F800E00CFA06FC4CEA0E0CC0F880
:1005000000C091F804C0BCF1010F02D0BCF1020F91
:100510001FD1D0F808C02CEA050CC0F808C091F82B
:1005200005C0D0F808E00CFA06FC4CEA0E0CC0F846
:1005300008C0D0F804C02CEA020CC0F804C042681D
:1005400091F806C00CFA03FC1FFA8CFC42EA0C027C
:100550004260C268AA43C260CA79C568B2402A43F1
:10056000C2605B1C102BB3D3F0BD4FF6FF7101606E
:100570000021017141718171C171704708B541F469
:1005800080320092C261C1610099C161C169C069D4
:10059000009008BD0246002012690A4200D00120E6
:1005A0007047006980B270470246002052690A42D3
:1005B00000D001207047406980B2704701837047C6
:1005C000418370470AB1018370474183704741619D
:1005D000704742694A40426170474B07DB0E9A40C0
:1005E000C90810B500EB8100016A0F249C40A143AB
:1005F0000162016A1143016210BD00000000024067
:100600000004024000080240000C024000100240BA
:100610000014024000180240001C0240002002406A
:100620000024024000280240F848016841F001011E
:100630000160F64A0021083211600268F44B1A404A
:100640000260031DF34A1A60F04BF34A84331A60C8
:10065000F04A103A1B1D1A60026822F480220260E0
:10066000EA480C300160181D01607047E74900221C
:10067000891C0A7008707047024600205109012940
:100680000CD002290CD0E1497431096802F01F0234
:10069000012393400B4200D001207047DB49F4E76F
:1006A000DA497031F1E718B500204FF4A04400900A
:1006B0003120FFF7E1FF0099491C0091A14201D0D0
:1006C0000028F5D03120FFF7D7FF002800D0012007
:1006D00018BDCE490A6822F0F80242EAC00008605C
:1006E0007047CE4908607047C849002270310A70CF
:1006F0000A70012802D0042801D105200870704733
:10070000C7490860704741EA82115A0810B5C54BC5
:10071000029C03EB02421143014341EA0460BB49DE
:10072000091D086010BDBD4908667047800140EA98
:100730000170B649843108607047B84988667047CF
:10074000800140EA0160B14940EA027088310860E6
:100750007047B24908677047B049C8647047AB4AF0
:1007600008321368084323F0EC63184310607047A5
:10077000A64A08321368084323F0784318431060F0
:100780007047A24A0832116821F003010143116049
:1007900070479E480830006800F00C0070479B4A84
:1007A0000832116821F0F001014311607047974A47
:1007B0000832116821F4E0510143116070479349F8
:1007C00008310A6822F4604242EAC00008607047BB
:1007D00070B58E4A08321168934C11F00C0104D0A8
:1007E000924E042903D0082903D004601BE0066060
:1007F00019E08649091D0B68C3F380550B6803F0A7
:100800003F0315B1B6FBF3F301E0B4FBF3F30C685F
:100810000968C4F388146343C1F30141491C4900CA
:10082000B3FBF1F1016011680F2303EA1111804B52
:100830005C5C0168E14041601468072505EA942486
:100840001C5D21FA04F48460126805EA52329A5C55
:10085000D140C16070BDC0F30121032908D16B4AAA
:100860000832116821F4F8137249014019431160EC
:10087000664970310A68C0F30B0002430A60704792
:1008800067494439086070476549403908607047D6
:100890006249C1F85C0170475C4A8C32116821F4EE
:1008A0004011014311607047584A8C32116821F49D
:1008B0004001014311607047544A8C321168401E58
:1008C00021F01F0101431160704750498C310A68C3
:1008D0006FF0FF0322F4F85203EB0020104308608E
:1008E00070474A4A8C32116821F44031014311604B
:1008F00070475149C1F8E0017047444A303200293D
:10090000116801D0014300E08143116070473F4A04
:1009100034320029116801D0014300E081431160A5
:1009200070473A4A38320029116801D0014300E08B
:10093000814311607047354A40320029116801D067
:10094000014300E0814311607047304A443200297E
:10095000116801D0014300E08143116070472B4AC8
:1009600010320029116801D0014300E08143116079
:100970007047264A14320029116801D0014300E073
:10098000814311607047214A18320029116801D053
:10099000014300E08143116070471C4A2032002966
:1009A000116801D0014300E0814311607047174A8C
:1009B00024320029116801D0014300E08143116015
:1009C0007047124A50320029116801D0014300E0FB
:1009D0008143116070470D4A54320029116801D0DB
:1009E000014300E0814311607047084A58320029F2
:1009F000116801D0014300E0814311607047034A50
:100A000060320029116819D0014318E00038024013
:100A1000FFFFF6EA103000240030002000004742BB
:100A2000800E47420000FFFF0024F40040787D0163
:100A300014000020FFFCFF0F0010474281431160AB
:100A40007047194A0029116801D0014300E0814331
:100A50001160704714490C310128086803D020F058
:100A600008000860704740F00800FAE70E4A573A5D
:100A70000029117801D0014300E0814311707047D3
:100A800009481030016841F08071016070470146EB
:100A9000054A0020583A12680A4200D001207047E7
:100AA000014956390870704764380240C14910B591
:100AB000884202D10121841424E0BF49884202D136
:100AC0000121041404E0BD4988420AD10121C41364
:100AD0002046FFF762FF2046BDE810400021FFF7E7
:100AE0005CBFB749884202D1012144140AE0B549EC
:100AF000884202D101210C0504E0B34988420AD1A1
:100B000001214C052046FFF752FF2046BDE810406A
:100B10000021FFF74CBF10BD30B502884C8802F4AD
:100B200041530A88CD8822438C882C4322430C8968
:100B300022434C8922438C892243CC8922431A4385
:100B40000280828B22F400628283098A018230BD96
:100B5000F0B502220023858B01244FF24006354078
:100B600085830284858B8E68022E42D08A8802B1EA
:100B70000224964A13681B0203D5136823F400036A
:100B80001360924A7C3213681268C3F388168F4F41
:100B9000C2F302733F1F3A683F6802F03F027F02D0
:100BA00001D58B4F00E08B4FB7FBF2F27243B2FBE3
:100BB000F3F2CB88B3F5007F2BD06301B2FBF3F2E5
:100BC00002EB82028B685200B2FBF3F2521D92B22A
:100BD0000A23B2FBF3F202F00103D21A4FF6FF74BC
:100BE000C2F34F0204EA0323941EFE2C01D3022217
:100BF0000023CC881A43144304840A884B881A4380
:100C00008B8889890B431A432A4342F4006181830C
:100C1000F0BD120AD4E70021018041808180C180AB
:100C2000018141818181C1810721018270470021B9
:100C3000018041808180C180022282608181704771
:100C40000029018802D041F0400101E021F040017B
:100C5000018070470029818B02D041F4806101E05E
:100C600021F4806181837047028822F4006202804F
:100C700002880A4302807047B1F5804F018803D093
:100C800021F480410180704741F48041FAE7A1F5E9
:100C90007E420188FF3A02D041F4807101E021F4E4
:100CA0008071018070470029818802D041F00401E1
:100CB00001E021F00401818070470029818802D081
:100CC00041F0100101E021F010018180704730B542
:100CD000838B00224FF2400423408383022303844A
:100CE000848B0B884FF48075B3F5007F00D003B977
:100CF0002A464B888D8889892B4311430B43234314
:100D000043F40061818330BD8089704781817047E1
:100D10000029018802D041F4005101E021F4005182
:100D200001807047018841F480510180704701299A
:100D300001D0008B7047808A7047008A7047002A74
:100D4000828801D00A4300E08A4382807047090903
:100D500001238B40002A828899B201D00A4300E027
:100D60008A43828070470246002012890A4200D0DE
:100D700001207047C9430181704710B501F00F048D
:100D80000122034602FA04F4002009098A4091B2C4
:100D90009A88A4B20A401989214202D0002A00D0C0
:100DA000012010BD01F00F0201219140C9430181D2
:100DB000704700000030014000380040003C004017
:100DC0000034014000500140005401400838024006
:100DD00040787D010024F400CD4910B5884206D149
:100DE00001211020FFF7E3FD0021102020E0C94978
:100DF000884202D101214C0429E0C749884202D12E
:100E000001218C0423E0C549884202D10121CC0490
:100E10001DE0C349884202D101210C0517E0C149F8
:100E2000884209D101212020FFF7C1FD00212020A7
:100E3000BDE81040FFF7BBBDBB49884202D101218C
:100E40008C0704E0B94988420AD1012144052046B3
:100E5000FFF7A3FD2046BDE810400021FFF79DBD30
:100E600010BD7FB50446008A0D4620F44051E88845
:100E700008432082A08941F20C618843A9882A890D
:100E800011436A8902431143A181A08A20F4407171
:100E9000A8890843A0826846FFF79AFC9C488442D0
:100EA00002D0A048844201D1039800E00298A189B1
:100EB000090400EBC00101EB0010296801D54900CD
:100EC00000E08900B0FBF1F26420B2FBF0F109010F
:100ED0000B096FF018056B4302EB8302A3891D0415
:100EE0004FF0320306D503EBC202B2FBF0F000F084
:100EF000070005E003EB0212B2FBF0F000F00F0078
:100F0000084320817FBD4FF416510160002181808C
:100F1000C18001810C2242818181704710B5028A13
:100F20004C8822F470630A8822438C88C9880C4359
:100F300022431A43028210BD00210180418081803A
:100F4000C18070470029818902D041F4005101E03D
:100F500021F4005181817047028B02F47F420283A9
:100F6000028B0A43028370470029818902D041F431
:100F7000004101E0C1F30E01818170470029818A9F
:100F800002D041F4006101E021F4006181827047E8
:100F9000C1F30801818070478088C0F30800704762
:100FA000028A22F00F020282028A0A4302827047FA
:100FB0000029818902D041F0020101E021F0020103
:100FC00081817047828922F40062828182890A438A
:100FD00082817047028A22F020020282028A0A433A
:100FE000028270470029018A02D041F4804101E069
:100FF00021F4804101827047818941F001018181A2
:1010000070470029818A02D041F0080101E021F0F7
:10101000080181827047028BD2B20283028B42EABE
:101020000121018370470029818A02D041F020010B
:1010300001E021F02001818270470029818A02D0DD
:1010400041F0100101E021F0100181827047828A95
:1010500022F004028282828A0A4382827047002937
:10106000818A02D041F0020101E021F00201818277
:101070007047002A828A01D00A4300E08A438282B4
:10108000704710B5C1F3421301F01F040121A140C4
:10109000012B07D0022B07D01430002A026805D09C
:1010A0000A4304E00C30F8E71030F6E78A430260A8
:1010B00010BD0246002012880A4200D0012070476D
:1010C000C9430180704730B501F01F02012400259B
:1010D000C1F3421304FA02F2012B0FD0022B0FD0FE
:1010E000838A4FEA11210088134204FA01F400EACE
:1010F000040001D000B10125284630BD8389F0E706
:10110000038AEEE70A0A01219140C9430180704732
:10111000001001400044004000480040004C0040E6
:10112000005000400014014000780040007C004066
:1011300010B586B05E49002001F0C7FA5C49012075
:1011400001F0C3FA03A9082001F0BFF903A959A0CF
:1011500001F0BEFC564CE078627921798DE80700F9
:10116000A3786278217859A001F0B2FC607A0090EF
:10117000237AE279A1795FA001F0AAFC607C00905B
:10118000237CE27BA17B60A001F0A2FC607B00904D
:10119000237BE27AA17A61A001F09AFC607D009045
:1011A000237DE27CA17C62A001F092FC65A001F0AD
:1011B0008FFC06B010BD10B501F0D8FB01F014FB98
:1011C000BDE81040A82001F0B5BA654B88B00DF11C
:1011D0000C0C0FCB8CE80F0062A00068079041F266
:1011E0007070ADF80400FFF7E6FF5F495F4800F05C
:1011F000E2FF5F495F4800F0EBFF5F495F4801F0A5
:1012000005F803A9012001F060F9401C03D15CA09E
:1012100001F05EFCFEE702A90F2001F056F9401C28
:1012200002D15EA001F054FC9DF808000028F2D025
:10123000FFF77EFF4FF442764FF40275304600F020
:101240005FFE68B32228F9D1642001F0B4FA284681
:1012500000F056FE400703D50421284600F06BFE3F
:10126000002000F0F9FE04B2002CE7DD611C5248BA
:1012700001F0BFFB01A80090A2B207AB4E490020CD
:1012800000F0F1FB4C494DA001F022FCBDF8040038
:101290000090A2B207AB4849002000F044FBCDE724
:1012A000002341F288320221184600F0C8F8C5E751
:1012B000240000200D0A3D3D3D202573204E45545D
:1012C00020434F4E46203D3D3D0D0A004D41433ADF
:1012D00020253032583A253032583A253032583AA3
:1012E000253032583A253032583A253032580D0AD6
:1012F000000000005349503A2025642E25642E2515
:10130000642E25640D0A00004741523A2025642EC0
:1013100025642E25642E25640D0A00005355423A9B
:101320002025642E25642E25642E25640D0A0000D8
:10133000444E533A2025642E25642E25642E2564C0
:101340000D0A00003D3D3D3D3D3D3D3D3D3D3D3DAA
:101350003D3D3D3D3D3D3D3D3D3D0D0A0000000014
:101360006C2F0008C0A801656D28000865280008DA
:101370007D28000875280008392800084D28000835
:1013800057495A4348495020496E697469616C69EC
:101390007A6564206661696C2E0D0A00556E6B6E6D
:1013A0006F776E20504859204C696E6B20737461C2
:1013B0007574732E0D0A00007C00002025730D0A41
:1013C000000000007047FEE7FEE7FEE7FEE770471B
:1013D000704770477047000070B50446082802D96E
:1013E0004FF0FF3070BD4FF4847000EB44100546A1
:1013F000102100F0A0FD284600F082FD0028FAD15F
:101400004FF4027000EB44101F2100F094FDFA48E5
:101410000121A14082888A43F8498280002021F876
:101420001400F549891D08554FF4427000EB44142F
:10143000204600F065FD0028FAD1012070BD2DE99D
:10144000F0411D4617460E460446082803D94FF0C2
:10145000FF30BDE8F081012E06D0022E04D0042E0C
:1014600002D06FF00400F4E715F0060F6FF00500EE
:10147000EFD185B1012E02D0022E0CD103E015F080
:10148000210FE6D007E0A90601D52906E1D5E90636
:1014900001D52906DDD52046FFF79EFF600105F046
:1014A000F0014FF001083143083000F044FDD24E06
:1014B00057B93788781C80B2A0F57F413080F03969
:1014C00002D14FF4404030804FF48160390A00EB84
:1014D000441000F030FD4FF4A160F9B200EB44106D
:1014E00000F029FD4FF4847000EB44100746012101
:1014F00000F021FD384600F003FD0028FAD105F088
:1015000001007188A04008437080B18808FA04F097
:101510008143B180B949002021F81400B649891DE2
:1015200008554FF4427000EB4415284600F0E8FCE3
:101530000028FAD060B28CE770B50546082802D9B9
:101540004FF0FF3070BD6801083000F0D9FC00F0AA
:101550000F00012802D06FF0040070BD4FF44270FC
:1015600000EB4510064600F0CBFC132802D06FF0CC
:10157000020070BD4FF4847000EB45100446022158
:1015800000F0D9FC204600F0BBFC0028FAD103E0B3
:10159000204600F0B5FC30B1304600F0B1FC142814
:1015A000F6D1012070BD2846FFF716FF6FF003004B
:1015B00070BD2DE9F04116460F460446082802D9B1
:1015C0004FF0FF3045E760014FF00108083000F0B0
:1015D00097FC00F00F00012802D06FF0040038E7FC
:1015E0004FF4427000EB4410054600F089FC1328CC
:1015F00002D06FF002002CE738787978BA7801EBE6
:10160000002102EB012100EB0120411C2CD058B33A
:101610006EB340F6084000EB44100422394600F057
:10162000CDFC41F20800310A00EB441000F083FCCD
:1016300041F20810F1B200EB441000F07CFC4FF4D2
:10164000847000EB44100646042100F074FC304620
:1016500000F056FC0028FAD1674908FA04F04988DE
:10166000084213D00020F4E66FF00B00F1E66FF0B3
:101670000A00EEE6204600F043FC00070AD52046AB
:10168000082100F058FC6FF00C00E2E64FF4027005
:1016900000EB4414284600F033FC1728EAD101205F
:1016A000D7E670B50446082802D94FF0FF3070BD68
:1016B00060010125083000F023FC00F00F00012834
:1016C00001D0A81F70BD4FF4847000EB4410064693
:1016D000082100F030FC304600F012FC0028FAD15E
:1016E0004548A5408188A9438180408805420CD0A7
:1016F000002070BD304600F003FC00070DD52046E9
:10170000FFF76AFE6FF00C0070BD4FF4027000EB43
:1017100044164FF4427000EB4415284600F0F0FBED
:101720000028E7D1012070BD2DE9F05F15468B46FA
:101730000646082803D94FF0FF30BDE8F09F70013E
:101740000124083000F0DCFB00F00F00012801D07C
:10175000A01FF2E775B14FF4427000EB4610074648
:1017600000F0CEFB6FF0060A172806D01C2804D024
:101770005046E2E76FF00D00DFE7DFF87C80B44011
:10178000B8F80400044213D04FF4027000EB461086
:10179000814600F0B5FB00F01F00C10624D5484685
:1017A000102100F0C8FBB8F80410A143A8F80410F9
:1017B00041F6087000EB461000F0A2FB4FF6FF71F7
:1017C00001EA8020854200D90546304600F01EFC23
:1017D0008146384600F094FB172811D01C280FD002
:1017E0003046FFF7F9FDC3E700070FD53046FFF796
:1017F000F3FD6FF00C00A0E73C0000207C08002007
:10180000B8F80200044203D04D4501D9002094E706
:101810004D45DAD82A465946304600F042FC4FF48E
:10182000847000EB46100646202100F084FB304611
:1018300000F066FB0028FAD1B8F8041028460C43E3
:10184000A8F8044079E72DE9F74F14460546082823
:1018500003D94FF0FF30BDE8FE8F68010126083044
:1018600000F04EFB00F00F00012801D0B01FF2E79E
:1018700024B341F6086000EB451000F041FB4FF641
:10188000FF7101EA8020A04200D204464FF442706A
:1018900000EB451841F60870DFF818A600EB451B71
:1018A00006FA05F9284600F0D7FB0646404600F048
:1018B00027FB172816D01C2803D00DE06FF00D0071
:1018C000C9E7CEB9284600F0A1FB0746584600F00C
:1018D00017FBB7EB802F05D12846FFF77DFD6FF092
:1018E0000600B8E7BAF8021019EA010F02D01EB9D3
:1018F0000020B0E7002ED5D0A64200D234462246C2
:101900002846019900F0FCFB4FF4847000EB451071
:101910000546402100F00FFB284600F0F1FA0028B0
:10192000FAD1204697E72DE9F0479946089E1546DB
:101930008A460446082803D94FF0FF30BDE8F087F7
:1019400060014FF00108083000F0DAFA00F00F00F3
:10195000022804D0042802D06FF00400EEE78DB115
:10196000D9F8000088B19EB14FF4427000EB4410EA
:10197000074600F0C5FA42280DD022280BD06FF0A0
:101980000600DBE76FF00D00D8E76FF00B00D5E73E
:101990006FF00A00D2E740F6084000EB4410042242
:1019A000494600F00BFB41F20800310A00EB4410FD
:1019B00000F0C1FA41F20810F1B200EB441000F05F
:1019C000BAFA41F6087000EB441000F099FA4FF6AD
:1019D000FF7101EA8020854200D9054608FA04F625
:1019E000DFF8D084204600F011FB8146384600F035
:1019F00087FA38B1B8F80200064206D04D4504D93E
:101A000000209BE76FF0030098E74D45EAD82A468F
:101A10005146204600F045FB4FF4847000EB441023
:101A20000646202100F087FA4FF4027000EB4414C0
:101A3000304600F065FA0028FAD1204600F060FA3E
:101A400000F01F00C10605D52046102100F073FAF2
:101A5000284673E70007F0D52046082100F06BFA0E
:101A60006FF00C006AE72DE9FF4F002583B0984620
:101A700017460446082803D9681E07B0BDE8F08F52
:101A800060014FF0010A083000F03AFA834600F096
:101A90000F00022804D0042802D06FF00400ECE705
:101AA0002FB1DFF8149439F8140018B11EE06FF06C
:101AB0000D00E2E74FF4427000EB44160AFA04FA14
:101AC000204600F0C9FA0546304600F019FA30B158
:101AD000F84949881AEA010F06D01DB106E06FF0F7
:101AE0000300CAE70020C8E7002DE9D0DFF8C4A34F
:101AF00000210AF1060A4FF484700AF804100BF072
:101B000007014FF0800B00EB4416022920D0042976
:101B10005AD02946204600F021FB29F814503046BF
:101B2000402100F008FA304600F0EAF90028FAD126
:101B300039F81410491B0904090C29F8141005D0B0
:101B40001AF8041041F001010AF80410284694E73D
:101B500039F814004D4680BB08226946204600F043
:101B6000CFFA3046402100F0E6F9304600F0C8F9DF
:101B70000028FAD19DF8001088F800109DF8011097
:101B800088F801109DF8021088F802109DF80310E3
:101B900088F8031010999DF8040008809DF805103E
:101BA00001EB0020109908809DF806009DF80710B1
:101BB00001EB002025F814002BE02CE02A462046FB
:101BC000049900F09DFAAAE739F814004D4610BBBD
:101BD00002226946204600F093FA3046402100F088
:101BE000AAF9304600F08CF90028FAD19DF80000DF
:101BF0009DF8011001EB002080B240F2EA5125F877
:101C00001400884205D92046FFF7E6FB6FF47A708E
:101C100033E70AF804B035F81450BD42CED93D463A
:101C2000CCE72DE9F0411446082802D94FF0FF30E7
:101C30000FE44FF40272DFF87CC202EB401742F669
:101C400008426FF0090502EB40132E0CBCF802208D
:101C5000082943D2DFE801F00413171A242B323C81
:101C6000237801218140012B01D023B136E01143BB
:101C7000ACF802102AE08A43ACF8022026E0C24009
:101C800002F0010018E041F6087101E041F6086138
:101C900001EB401000F034F906EA8020208015E0C6
:101CA00020781F281AD800F01F0138460CE038466B
:101CB00000F026F900F01F00207007E020781F28B0
:101CC0000CD800F01F01184600F035F9012032E46D
:101CD000184600F015F900F01F00207028462AE48D
:101CE0002DE9F04115460446082802D94FF0FF308F
:101CF00021E4600142F6087208306FF0040702EB3D
:101D0000441608296AD2DFE801F0690408101C258E
:101D1000315E297841F2086002E0297841F20850EA
:101D200000EB441000F007F94BE02888010A41F26B
:101D3000082000EB441000F0FEF8297841F208304A
:101D4000EEE740F6084000EB44100422294600F07C
:101D500035F936E02888010A41F2080000EB44100A
:101D600000F0E9F8297841F20810D9E700F0C8F846
:101D700000F00F0001282CD1304600F0C1F810B15E
:101D80006FF001001EE44FF4847000EB4410054630
:101D9000222100F0D0F84FF4027000EB44140BE065
:101DA000204600F0ADF8000706D52046082100F0D7
:101DB000C2F86FF00C0005E4284600F0A1F80028F6
:101DC000EED101200BE400F09BF800F00F00012899
:101DD00001D0384603E429783046A3E76FF00900C4
:101DE00009E470B515460446082802D94FF0FF30C3
:101DF00070BD600108306FF004060D2978D2DFE86D
:101E000001F0070C1114242D773D4A4E525D6B00F2
:101E100000F076F800F0F00002E041F2086044E0E3
:101E2000287053E041F208503FE041F2083000EBE7
:101E3000441000F065F8064641F2082000EB44101B
:101E400000F05EF806EB0020287040F6084000EB3A
:101E500044100422294600F08CF837E041F20810C3
:101E600000EB441000F04CF8064641F2080000EB8D
:101E7000441000F045F806EB002026E000F040F8A2
:101E800000F00F0001282DD142F6087000EB44103D
:101E900000F036F819E0204600F0B8F82880204617
:101EA00000F0DAF828804FF4427000EB441000F0A4
:101EB00027F8B5E73C0000207C08002000F020F85F
:101EC000012805D00C4830F814002880012070BD8E
:101ED000204600F0C1F8F8E700F012F800F00F001B
:101EE000012802D0304670BD02E00448005D97E74B
:101EF0006FF00100F7E700007C080020420000209E
:101F000070B5A64C0546A068804720698047E16906
:101F1000C5F307408847E169C5F307208847E169B1
:101F2000E8B28847A0698047054660698047E06855
:101F30008047284670BD70B5984C05460E46A0688F
:101F400080472069804745F00405E169C5F30740F3
:101F50008847E169C5F307208847E169E8B2884707
:101F6000E1693046884760698047E068BDE87040B5
:101F700000472DE9F041894C06461746A06888467F
:101F80000025804720698047E169C6F307408847FC
:101F9000E169C6F307208847E169F0B2884705E0A8
:101FA000A069804708F805006D1CADB2BD42F7D3AB
:101FB00060698047E068BDE8F04100472DE9F041E5
:101FC000764C06461746A06888460025804720695B
:101FD000804746F00406E169C6F307408847E16997
:101FE000C6F307208847E169F0B2884706E000BFE2
:101FF000E16918F8050088476D1CADB2BD42F7D302
:1020000060698047E068BDE8F04100472DE9F04194
:1020100042F2080101EB401542F20811002601EBE3
:1020200040142846FFF76CFF07462046FFF768FF7D
:1020300000EB072007043F0C09D02846FFF760FF9C
:1020400006462046FFF75CFF00EB062086B2BE4244
:10205000E7D13046BDE8F0812DE9F04142F2086158
:1020600001EB401542F20871002601EB40142846AE
:10207000FFF746FF07462046FFF742FF00EB072029
:1020800007043F0C09D02846FFF73AFF06462046D2
:10209000FFF736FF00EB062086B2BE42E7D130469E
:1020A000D8E72DE9F0475FEA02088946064625D0C1
:1020B00042F2085000EB46152846FFF721FF07467D
:1020C00042F2084000EB46142046FFF719FF07EBE9
:1020D000002087B2380200EB4610424649461030D5
:1020E000FFF76CFF07EB080086B2310A2046FFF7C6
:1020F00022FFF1B22846BDE8F0471CE7BDE8F087B3
:102100002DE9F0475FEA020889460646F6D042F616
:10211000081000EB46152846FFF7F2FE074642F688
:10212000080000EB46142046FFF7EAFE07EB00200C
:1021300087B2380200EB4610424649461830FFF796
:1021400018FF07EB080086B2310A2046FFF7F3FEBE
:10215000F1B22846BDE8F047EDE6CFE72DE9F041C2
:10216000044642F6081000EB44150E462846FFF7D9
:10217000C7FE074642F6080000EB44142046FFF76E
:10218000BFFE07EB0020304486B2310A2046FFF73D
:10219000D2FEF1B22846BDE8F041CCE65400002062
:1021A00070477047704770470078704701707047FC
:1021B000002070477047F84A18B111B1C2E9020116
:1021C0007047AFF223009060AFF22900D0607047F3
:1021D000F14A18B111B1C2E904017047AFF23B00F6
:1021E0001061AFF23D0050617047EB4A10B51388A3
:1021F000DC05FDD518B111B1C2E9060110BDAFF281
:1022000057009061AFF25B00D06110BDE24A10B59B
:1022100013889C05FDD518B111B1C2E9060110BDA6
:10222000AFF273009061AFF27300D06110BD10B5D2
:102230004FF43850FFF764FEC00700D0012010BDF6
:1022400010B500244FF43850FFF75AFE10F0300F4D
:1022500000D00124204610BD10B54FF4385420465C
:10226000FFF74EFE20F080012046FFF764FE204677
:10227000FFF746FE40F080012046BDE81040FFF722
:102280005ABE70B504464FF438563046FFF738FE54
:1022900041064FF0FF351AD520F03800012C10D040
:1022A00040F038013046FFF746FEFFF7D5FF3046D5
:1022B000FFF726FE012C07D000F0380038B10020CF
:1022C00070BD40F03001EDE700F03000F6E7284641
:1022D00070BD10B504464FF43850FFF711FEC0F33F
:1022E0008011217000F0380001220021202811D037
:1022F00038280FD0617010280ED018280CD0202854
:102300000AD0A170082809D0182807D0202805D0A5
:10231000E17010BD6270EEE7A270F3E7E27010BDED
:1023200010B502780021012A00D140214278012A0B
:1023300006D0C2788078012A05D001280BD00CE0A5
:1023400041F0380109E0012802D041F0080104E021
:1023500041F0180101E041F010014FF43850FFF74F
:10236000EAFDBDE8104077E710B54FF4B050FFF735
:10237000C7FD04464FF4C050FFF7C2FD04EB002038
:1023800080B210BD10B5C1B2040A4FF4B050FFF7CF
:10239000D2FD2146BDE810404FF4C050FFF7CBBD41
:1023A00010B54FF4A850FFF7ABFD00F0F0044FF468
:1023B000B850FFF7A5FD04EB002080B210BD10B5AA
:1023C000040A00F0F0014FF4A850FFF7B4FD2146D5
:1023D000BDE810404FF4B850FFF7ADBDF0B585B083
:1023E0004FF41064062269462046FFF7C2FD04221E
:1023F000950102A92846FFF7BCFD4FF4A066042210
:1024000003A93046FFF7B5FD4FF47067042204A915
:102410003846FFF7AEFD80210020FFF78CFD00203D
:10242000FFF76EFD062269462046FFF7C7FD04222E
:1024300002A92846FFF7C2FD042203A93046FFF790
:10244000BDFD042204A93846FFF7B8FD05B0F0BD74
:102450002DE9F0410D4606460024FFF7BFFF4FF07F
:10246000FF38AEB10022B05C521C204452B244B2DC
:10247000082AF8DB102C17DC002441F60877315DC0
:1024800007EB4410FFF757FD641C64B2082CF6DB21
:10249000CDB1002108462A5C401C114440B249B22B
:1024A0000828F8DB102902DD4046BDE8F081002451
:1024B00041F60866295D06EB4410FFF73CFD641CFD
:1024C00064B2082CF6DB0020EFE72DE9F0410C4662
:1024D000002102464F1E08464FF498554FF4A0566F
:1024E000102A61D2DFE802F0080B1612191D212B09
:1024F00035424549554D515AFFF770FF49E014B137
:10250000204604F10801BDE8F041A1E72088FFF76B
:1025100056FF3EE0FFF744FF05E02088FFF732FF5B
:1025200037E0FFF721FF208033E02088010A2846AA
:10253000FFF701FD21783046FFF7FDFC29E030462A
:10254000FFF7DEFC06462846FFF7DAFC06EB002024
:10255000E9E7114882782270C27862700279A2702D
:102560004279E27080792071617112E0FFF774FEA8
:102570000FE02046FFF7D4FE0BE02046FFF7A9FE50
:1025800007E02078BDE8F0417BE6FFF759FE07E061
:102590002070002089E7000054000020FFF747FE6C
:1025A000C0B241B2491CF3D138467EE770B504464B
:1025B0004FF4D850FFF7A4FC20704FF4D050FFF731
:1025C0009FFC05464FF4C850FFF79AFC05EB00202E
:1025D000608070BD10B5044601784FF4D850FFF705
:1025E000AAFC6088010A4FF4C850FFF7A4FCA17848
:1025F000BDE810404FF4D050FFF79DBC0020FFF71E
:102600007FBC10B5044630F03A0002D04FF0FF30E6
:1026100010BD0020FFF774FC40EA04010020FFF722
:102620008AFC002010BD10B50446014606224FF476
:102630001060FFF79EFC042204F10E019001FFF7E9
:1026400098FC042204F10A014FF4A060FFF791FC0A
:102650000422A11D4FF47060FFF78BFC3448017811
:10266000A1744178E17481782175C0786075304833
:10267000401E0078A07510BD10B504460146062224
:102680004FF41060FFF79AFC042204F10E01900150
:10269000FFF794FC042204F10A014FF4A060FFF755
:1026A0008DFC0422A11D4FF47060FFF787FC2048C9
:1026B000A17C0170E17C4170217D8170617DC170E0
:1026C0001B49A07D491E087010BD10B50C46062898
:1026D0001DD2DFE800F003070B0F13172046FFF7AA
:1026E000CBFF12E02046FFF79EFF0EE02078BDE80A
:1026F000104086E7FFF782FF207006E02046FFF7D4
:1027000069FF02E02046FFF751FF002010BD4FF0A7
:10271000FF3010BD10B504464FF43850FFF7F0FB02
:10272000C0F38001E170C0F34000A07010BD000054
:102730004D00002010B504466FF00400FDF746FE82
:102740002848E10801EB41020170C2EBC1114FF6CC
:10275000FF7202EAC101418010BD22490978484355
:102760004FF0E021486100228A61086940F00100D1
:1027700008610869C30701D0C003FAD5086920F0D1
:10278000010008618A6170471649498848434FF043
:10279000E021486100228A61086940F00100086177
:1027A0000869C30701D0C003FAD5086920F0010009
:1027B00008618A61704770B54FF40775B0FBF5F199
:1027C00005FB1106CCB204E02846FFF7DDFF641ECE
:1027D000E4B2002CF8D1002E03D03046BDE87040A2
:1027E000D2E770BD7400002010B586B000F04AF842
:1027F0000020ADF80000ADF804004FF48271ADF890
:1028000002100221ADF80610ADF80C000121ADF860
:102810000810ADF80E00490207203C4CADF80A1034
:10282000ADF8100069462046FEF776F901212046F2
:10283000FEF706FA06B010BD34490A899207FCD5A6
:1028400088810889C007FCD0888970472F48018992
:102850008907FCD5FF2181810189C907FCD08089C6
:10286000C0B27047012080F310887047002080F3C9
:102870001088704710212648FDF7A2BE1021244879
:10288000FDF79CBE7CB501210803FEF75EF801212F
:102890000320FEF732F81F4D052203212846FDF7DD
:1028A0009CFE052204212846FDF797FE05221146CD
:1028B0002846FDF792FE02218DF805108DF80410D0
:1028C000002108208DF8061000908DF80710694649
:1028D0002846FDF7F9FD1024694628460094FDF7C7
:1028E000F3FD2020009069462846FDF7EDFD009499
:1028F0000120074C8DF8040069462046FDF7E4FDF1
:1029000010212046FDF75AFE7CBD0000003001403A
:10291000000002400004024010B501210846FDF706
:10292000ECFF01211020FEF710F82C4C07220921A2
:102930002046FDF752FE20460722BDE810400A213E
:10294000FDF74BBE1CB54FF4C060009002208DF81F
:1029500004008DF8050000208DF8060001208DF898
:10296000070069461D48FDF7AFFD1CBD1FB5FFF709
:10297000D3FFFFF7E7FF4FF4E13000900020ADF800
:102980000600ADF80400ADF80800ADF80C000C200E
:10299000134CADF80A0069462046FEF762FA0022A1
:1029A00040F225512046FEF76CFB01212046FEF740
:1029B000C9FA40212046FEF783FB1FBD70B5084DC4
:1029C0000446C1B22846FEF7E3FA80212846FEF706
:1029D00070FB0028F9D0204670BD000000000240C6
:1029E00000100140D2B201E000F8012B491EFBD2D9
:1029F00070470022F6E710B513460A46044619460A
:102A0000FFF7F0FF204610BD2DE9F05F05460020DE
:102A100092469B4688460646814640241BE028464F
:102A200041464746224600F042F853465A46C01AED
:102A3000914110D311461846224600F029F82D1A6C
:102A400067EB01084F4622460120002100F020F8E4
:102A500017EB00094E41201EA4F10104DFDC4846BB
:102A600031462A464346BDE8F09F0000064C074D1C
:102A700006E0E06840F0010394E80700984710344E
:102A8000AC42F6D3FDF784FB7C2F00089C2F000896
:102A9000202A04DB203A00FA02F10020704791401E
:102AA000C2F1200320FA03F3194390407047202A13
:102AB00004DB203A21FA02F00021704721FA02F3E8
:102AC000D040C2F1200291400843194670470000EF
:102AD0000FB4054B10B503A9044A029800F018F88A
:102AE00010BC5DF814FB0000BD2900087800002030
:102AF00002E008C8121F08C1002AFAD170477047C7
:102B0000002001E001C1121F002AFBD17047000024
:102B10002DE9FF4F8DB00F460546002606E025281B
:102B20000BD0DDE90F1290476D1C761C2878002829
:102B3000F5D111B03046BDE8F08F0024A246A14681
:102B40000122EA4900E0044315F8013F203B02FA64
:102B500003F00842F7D128782A2810D06FF02F020E
:102B60002878A0F13001092914D80AEB8A0102EB78
:102B7000410144F0020400EB010A6D1CF0E701CFB3
:102B80005FEA000A03D544F40054CAF1000A44F095
:102B900002046D1C28782E2817D115F8010F44F077
:102BA00004042A280ED06FF02F022878A0F13001FB
:102BB00009290AD809EB890102EB410100EB01095F
:102BC0006D1CF2E757F8049B6D1C28786C280FD019
:102BD00006DC4C2817D068280DD06A2814D104E0F0
:102BE000742810D07A280FD10DE044F400140AE0C4
:102BF00044F4801401E044F440146978814202D125
:102C000004F580146D1C6D1C2A786E2A1FD00CDC14
:102C1000632A31D004DC002A8BD0582A11D19FE0DE
:102C2000642A68D0692A0CD165E0732A2ED004DCAE
:102C30006F2A73D0702A04D197E0752A6FD0782A52
:102C40006ED01046DDE90F129047761C4CE1C4F3BC
:102C50000250022806D0032809D0042801CF09D049
:102C6000066041E101CFF117C0E900613CE101CF0D
:102C7000068039E1067037E117F8040B8DF8000083
:102C800000208DF80100EB46012003E057F804BB5B
:102C90004FF0FF3061074FF0000102D40DE008F162
:102CA0000101884649450FDA8045F8DB1BF808101A
:102CB0000029F4D108E008F1010188468142FADBDD
:102CC0001BF808100029F6D1DDE90F23AAEB080054
:102CD0008146214600F032F9304400EB080604E05A
:102CE000DDE90F121BF8010B9047B8F10108F7D28C
:102CF00021464846F3E00A21C4F302534FF0000B8B
:102D00000891022B04D001CFC117032B09D00AE090
:102D1000FF1D27F00707F7E8020108E02EE01DE09D
:102D20001EE000B2C117042B01D140B2C117002927
:102D300007DA4FF0000CD0EB0C006CEB01012D23F7
:102D400002E0230504D52B238DF82430012303E072
:102D5000E30701D02023F7E7984656E00A210EE06A
:102D600010204FF0000B08900CE010214FF0000BEA
:102D700044F004044FF00809089103E008214FF0E3
:102D8000000B0891C4F30253022B04D001CF0021A1
:102D9000032B06D006E0FF1D27F00707F7E8020126
:102DA00003E080B2042B00D1C0B24FF0000823072B
:102DB0002BD5702A07D0DDF820C08CF0100C5CEA0F
:102DC0000B0C05D00EE040238DF82430012308E0E1
:102DD00050EA010306D030238DF824308DF82520E9
:102DE00002239846DDF820C08CF0080C5CEA0B0C3E
:102DF0000BD150EA010301D1630706D530238DF8CA
:102E000024304FF00108A9F10109582A04D038A252
:102E10000B9208AA0A920BE03AA2F9E75B46089ADD
:102E2000FFF7F2FD0B9B9B5C0A9A521E0A921370ED
:102E300050EA0102F2D10A98ADEB000000F1200B3C
:102E4000600702D524F4803401E04FF00109D94530
:102E500002DDA9EB0B0000E0002000EB0B01414478
:102E60000890AAEB010AE00306D4DDE90F2321460E
:102E7000504600F063F806444FF0000908E009A945
:102E800011F80900DDE90F12904709F10109761CDC
:102E9000C145F4DBE0030CD5DDE90F2321465046A4
:102EA00000F04CF8064404E0DDE90F1230209047B2
:102EB000761C0899481E08900029F5DC08E00A985D
:102EC0000A990078491C0A91DDE90F129047761C97
:102ED000BBF10001ABF1010BF1DC21465046DDE90D
:102EE0000F2300F019F806446D1C1FE609280100A5
:102EF0003031323334353637383961626364656670
:102F00000000000030313233343536373839414231
:102F100043444546000000002DE9F04104460025E9
:102F20001E461746880404D405E039462020B047E1
:102F30006D1C641EF9D52846BDE8F0812DE9F041ED
:102F4000044600251E469046C80301D5302700E000
:102F50002027880404D505E041463846B0476D1C5B
:102F6000641EF9D52846BDE8F08100000202020285
:102F70000202020202020202020202029C2F000866
:102F8000000000207C000000F02A00081830000833
:102F90007C000020140C0000002B0008007A030ABB
:102FA00000000000000000000102030406070809F9
:102FB00000000000010203040102030406070809DF
:102FC0000008DC111111C0A8017BFFFFFF00C0A8A1
:102FD000010108080808010000C00000000000000E
:102FE00000000000000000000000000000000000E1
:102FF0000102573535303000A1210008A321000817
:10300000A5210008A7210008A9210008AD2100087A
:083010000000000000000000B8
:040000050800018965
:00000001FF
